:020000041005E5
:1048000000600020B158051065510510AD5005102D
:10481000DDCCBBAA45554C42000000000000000062
:104820000000000000000000000000000559051015
:104830000000000000000000995805102D5B0510D5
:10484000414F0510C151051000000000000000009C
:10485000355C0510ED580510E94C0510AD5D0510EF
:104860000000000000000000000000000000000048
:1048700000000000514A0510DD500510C55005101C
:1048800000000000F5500510115105102D510510C4
:1048900049510510D158051095580510094D0510BE
:1048A0000000000000000000000000000000000008
:1048B00000000000000000000000000000000000F8
:1048C0000348854600F074F800480047ED61051084
:1048D0000060002030B50B46014600202022012454
:1048E00009E00D46D5409D4205D31D469540491B24
:1048F0002546954040191546521E002DF1DC30BD6D
:1049000070B500242546002801DA01244042002920
:1049100001DA01254942FFF7DDFFAC4200D04042F9
:10492000002C00D0494270BD10B503461C460C4314
:10493000A40703D009E010C9121F10C3042AFAD239
:1049400003E00C781C70491C5B1C521EF9D210BD90
:10495000F0B51FB40646002082B005464024019100
:1049600000901BE0019922460F46304600F042F8C5
:10497000049A059B801A994110D310461946224685
:1049800000F028F8361A8F410197224601200021B5
:10499000009F00F01FF838184D4100902046641E1B
:1049A0000028DFDC019B00982946324607B0F0BDA5
:1049B000064C0125064E05E0E36807CC2B430C3C72
:1049C00098471034B442F7D3FFF77EFFA063051079
:1049D0004064051010B5202A04DB0146203A9140BE
:1049E000002010BD914020239C1A0346E340194348
:1049F000904010BD10B5202A04DB0846203AD04074
:104A0000002110BD0B46D340D0402024A21A914073
:104A10000843194610BD30B58C180278401C1307A6
:104A20001B0F01D10378401C120906D10278401CEB
:104A300003E005780D70401C491C5B1EF9D101E0B4
:104A40000B70491C521EFBD1A142E6D3002030BDA1
:104A5000034804490068884201D0406F0047FEE7E0
:104A6000100000200048051030B5114D8BB028789B
:104A700000281AD00FA00FC807AC0FC4114912208C
:104A8000FBF7ECFA00240E21069407A80191059487
:104A9000FF220290FF21039404940123E132009449
:104AA00041312046F8F702F92C700BB030BD000000
:104AB000B1040020094F5441536572766963654D16
:104AC000677200006004002070B500210C4A03E00A
:104AD000535C491C5918C9B2535C002BF8D1CE1C49
:104AE00002243525202E04D2545451184D7088705C
:104AF000CB7004490C704D708870CB7070BD000095
:104B0000740500201C00002010B53D493B4A0A6096
:104B10003C4A4A603C4A8A603C4ACA603C4A0A6154
:104B20003C4A4A613C4A8A613C4ACA613C4A0A6240
:104B30003C4A4A623C4A8A623C4ACA623C4A0A632C
:104B40003C4A4A633C4A8A633C4ACA633C4A0A6418
:104B50003C4A4A643C4A8A643C4ACA643C4A0A6504
:104B60003C4A4A653C4A8A653C4ACA653C4A0A66F0
:104B70003C4A4A663C4A8A663C4ACA663C4A0A67DC
:104B80003C4A4A673C4A8A673C4ACA673C4A803189
:104B90000A603C4A4A603C4A8A603C4ACA603C4AD5
:104BA0000A613C4A4A613C4A8A613C4ACA613C4AC1
:104BB0000A623C4A4A623C4A8A623C4ACA623C4AAD
:104BC0000A633C4A4A633C4A8A633C4ACA633C4A99
:104BD0000A643C4A4A643C4A8A643C4ACA643C4A85
:104BE0000A653C4A4A653C4A8A653C4ACA653C4A71
:104BF0000A663C4A4A66ECF7A3F910BDA5610510A8
:104C000028030020B9610510EB610510BD61051096
:104C1000E9610510A3610510BB610510696105100C
:104C20008D61051077610510316105103561051042
:104C3000376105102B6105103B6105102D610510D2
:104C40003961051029610510336105102F610510C8
:104C50009361051095610510916105108F61051034
:104C60003D61051057610510156105101B610510A8
:104C70001961051023610510276105101F610510DA
:104C800025610510216105101D61051017610510D2
:104C90004F61051051610510556105104D610510FA
:104CA0004B610510676105105B61051059610510C6
:104CB000656105106361051053610510D76105102A
:104CC000D5610510D9610510E7610510E361051094
:104CD000DB610510E5610510E1610510DF6105107C
:104CE000DD610510A950051010B50548054900689B
:104CF000884202D0806D804710BDF4F78BFC10BD58
:104D0000100000200048051004480549006888424A
:104D100002D08030C0690047FEE70000100000208C
:104D20000048051070B58AB00D4606461C2243A106
:104D300003A8FFF7F9FD684600F086F90924E406A8
:104D4000002E62D04020694688764C20C87520200D
:104D50000875B22048775B2008A908703E4B986A16
:104D60003E49020C8A420AD108AEF2788F263240C0
:104D700008AEF270F2784007400E0243F270586AB3
:104D8000020C8A420AD16B465A7CCF231A406B46EA
:104D90005A745A7C8007800E02435A742E48403859
:104DA000006B020C8A4209D108AAD17889088900CF
:104DB000D170D1788007800F0143D1706946C87DDA
:104DC000FB2108406946C875487889780001084386
:104DD000122808D308A9C8780421084308A9C87074
:104DE000C878FFF771FE03A8012180B209044018BA
:104DF000E060E068C003FCD4694648788978000127
:104E00000843122801D300F015FE1548018B002934
:104E1000FCD0012101831721818100210161002D36
:104E200006D020691021084022690A408242FBD046
:104E30000D490C4808600AB070BD0000023F000236
:104E40003E30023C20023B4C023A400239B202346E
:104E50005B02350B00000000C007001055AA0000DF
:104E600000001048CCBCECFC1400002000B5084940
:104E70000968084A914209D14006010C06483F22C0
:104E8000028181611121018000F052F800BD000013
:104E900014000020CCBCECFC0000104000B5094A16
:104EA0001268094B9A420BD1084A3F2313818008AC
:104EB00090610648403001603320108000F038F8DF
:104EC00000BD000014000020CCBCECFC0000104031
:104ED00000B50C4A12680C4B9A4212D10B4A3F2380
:104EE00013818008906109480B68403003604B686B
:104EF00043608B688360C968C160CC20108000F07B
:104F000017F800BD14000020CCBCECFC00001040E1
:104F100010B501E0521ED2B2002A07D003780C78F7
:104F2000401C491CA342F5D0012010BD002010BD3B
:104F30000248018AC907FCD07047000000001040F9
:104F4000034804490068884201D0006C0047FEE72E
:104F50001000002000480510F0B502790124A407D4
:104F60000168002A02D0062A03D006E063688B435A
:104F700002E0636800220B43636000210F2703688F
:104F8000CB40DB07DB0F19D0082909D2E56A8B007B
:104F90003E469E40B54316469E403543E5620DE0D1
:104FA0000B46083B082B09D28B003D46203B266B65
:104FB0009D40AE4315469D402E432663491CC9B211
:104FC0001A29DCD341790129E168026809D09143AB
:104FD000E16081790129A168006804D08143A16062
:104FE000F0BD1143F4E70143F9E70000012902D0C5
:104FF00003490860704701218907C86370470000B2
:105000004000004010B50F4C002803D0012809D003
:1050100002280FD000F0D2FC0C2148430019803840
:10502000406F10BD00F0CAFC0C21484300198038C5
:10503000806F10BD00F0C2FC0C214843001980387D
:10504000C06F10BD6063051030B5124A114C283A8C
:10505000114BD1690906090F4170D2691207120F6D
:10506000827022680D4D01244260AA4208D11A685C
:105070000B4B9A4201D1042200E00222027000E0B0
:105080000470002900D144700649898A491C8900AE
:10509000816030BD280090401C00001041A000023B
:1050A00044A000F20000104070470000034804498B
:1050B0000068884201D0C0680047FEE71000002069
:1050C00000480510034804490068884201D0C06FB9
:1050D0000047FEE71000002000480510034804497F
:1050E0000068884201D0806F0047FEE71000002072
:1050F00000480510044805490068884202D0803005
:1051000040680047FEE7000010000020004805103E
:10511000044805490068884202D080308068004712
:10512000FEE7000010000020004805100448054973
:105130000068884202D08030C0680047FEE7000067
:105140001000002000480510044805490068884206
:1051500002D0803000690047FEE700001000002008
:1051600000480510034804490068884201D080685F
:105170000047FEE710000020004805108307FF22CB
:10518000DB0E9A408907090E994000280BDA0007C8
:10519000000F0838830808489B001818C369934318
:1051A0000B43C3617047830804489B0018180368C9
:1051B00093430B430360704700ED00E000E400E020
:1051C000034804490068884201D0406C0047FEE76C
:1051D0001000002000480510F0B5A7A007C88FB048
:1051E0000AAB07C3022000F0F5FB662569460D7681
:1051F0009A264E760C248C762027CF7600200877CE
:1052000008204877A7208877BA20C877E32008A924
:10521000087011204870062088708520C870C02052
:105220000871F7204871972088718A20C871102270
:1052300006A9944800F02AFB934800900A23012213
:1052400090490220F7F71FFE00287DD168460576B9
:1052500046760C2181762021C1760024047708212E
:105260004177A7218177BA21C177E32108A801708E
:1052700011274770082181708521C170C0210171FB
:105280008C2141712E2181711221C1717D48102222
:1052900006A9103000F0FAFA7B4A1020921C039005
:1052A0000421059202200291014600907648754A39
:1052B00004940194143808231032808AF7F79CFD77
:1052C0000028C2D16620694608769A2048760C20CC
:1052D00088762020C8760C7708204877A720887722
:1052E000BA20C877E32008A9087011204870082068
:1052F00088708520C870F0200871992048710F20AF
:1053000088712120C8715F48102206A9103000F072
:10531000BDFA5D490520091D059102905A4E1025E0
:105320000E20584A03950494143E019400900923DA
:1053300010320221B08AF7F75FFD002885D10920DD
:105340000AA90090012300E088E0029001940391F3
:105350003046028B818A008CF8F7F0F800287DD166
:105360006620694608769A2048760C268E7620209C
:10537000C8760C7708224A77A7208877BA20C877A2
:10538000E32708A90F70112048708A708520C87023
:1053900080200871AA204871912088712620C87148
:1053A0003848102206A9103000F070FA3649012260
:1053B000891D05200194049205910290324C0E2023
:1053C000304A03950090143C142310320221A08A25
:1053D000F7F712FD00284CD16620694608769A201E
:1053E00048768E762020C87600260E7708224A77E7
:1053F000A7208877BA20C87708A90F7011204870B5
:105400008A708520C8706020087157204871DC20A0
:1054100088712B20C8711B48102206A9103000F09B
:1054200035FA21461C310591042002AA61C21220DE
:10543000144A01960090042310320221A08AF7F743
:10544000DBFC002815D111480DA900BA0D901048B9
:1054500000BA0E9008200090012300E009E00196B8
:1054600003910290E28AA18A208CF8F767F800285D
:1054700000D047200FB0F0BD020000000000000087
:105480000000000054050020880400200070051072
:10549000FF6F06107FB50C4C01466089401CFFF77A
:1054A00019FA00290FD1214604203431002500903B
:1054B0000195039102900123A28BA18A208CF8F719
:1054C0003DF8657165817FBD74040020BFF34F8F87
:1054D00003490248C860BFF34F8FFEE70400FA0596
:1054E00000ED00E070B5134D0646A879002820D0E5
:1054F000688A001FC117090F081800090001C400BD
:105500002034F0F7E4FD01463046F0F7D1FD0646C1
:10551000E017000F001900116B2148437D21C900DD
:10552000FFF7EEF9401C864203DD0020A87100F071
:105530006BF870BD740400201FB50F4A04210020D1
:1055400014460091343C0392029101900123A28BF6
:10555000A18A208CF7F7F2FFE16AA06A814209D3A1
:10556000022000F04EFA05490548FFF797FC01209C
:105570002070A0701FBD0000A8040020AA5555AAE5
:105580001070051010B510A086B003C801910090EE
:105590006A4606210020F8F795F9F7F72DFE04A9D1
:1055A00003A80191009002AB072200210120F7F728
:1055B000F1F9FFF711FE044604210120F8F7ECF899
:1055C000204606B010BD0000123400E18002000049
:1055D000034B01225A711A463432508011807047B1
:1055E0007404002010B5074C2078002807D0002054
:1055F0002070F8F7C9F89321208CF7F7F1FB607859
:1056000010BD000074040020F8B5274E0020B071D2
:10561000F08B3082F16A706A4018002421463063B2
:1056200029E0736A1033984231D0111B102907DB2F
:105630001E490D192946FFF74BFC2946102210E0A0
:105640001A4A0427115D1519EA7812068A18A978F2
:105650000B046978090259185118FFF71FFC2946F5
:105660003A46306BFFF754FC010009D11034306B1F
:10567000A4B210303063B2899442D2D3002909D049
:1056800009483C2134304180FFF756FFF8BD103403
:10569000A4B2EEE7F06A91B24018F062024900202D
:1056A00034314880B081EFE774040020B404002056
:1056B000FFB5714F85B038843A8B0025521C91425A
:1056C00029D1FD703D711979587809064018D978AB
:1056D0009A780904120289184018B862197A587920
:1056E00009064018D9799A790904120289184018D4
:1056F0007862197801290CD003290AD0082139725F
:105700003863BD81FD62FD810420F8F73DF809B0E2
:10571000F0BD0121F3E7BA8B941CA14218D1564980
:10572000FD8134310D804D80042300930293019557
:1057300003910123B98AF7F701FF002802D1022063
:1057400000F066F9787A0328E1D017207882DEE746
:10575000788B401C8142DAD17879002806D078898C
:10576000401C7881387AFFF795FED0E7788A001FD1
:10577000C117090F081802900011C0010090B989E3
:105780008842C4DD079A3C4C8A18121F0846A46A56
:10579000944610E0A04205D2421AD2185678374AF1
:1057A000165401E0354A1554344AFE79125C7240B1
:1057B000401CFA7180B28445ECDC079959182039F5
:1057C0004A7F8E7F7240CE7F2B49CF797E407240D8
:1057D000CA718881019008461E78C189008A964264
:1057E00039D1029A244E120912019446D218D37864
:1057F00097781B02DB199BB2F38399421FD1491C96
:1058000088B2F0815178012904D061465B1C59436C
:10581000A1422ED31849343108804D800099019857
:10582000FFF76EF8002907D0F06A0099201A884225
:105830001FD2019988421CD80120B07119E07181F2
:10584000002800D0401C81B2F181F020FFF7C0FE9B
:10585000B581307A0BE0084C6181002800D0401CF3
:1058600081B2E1810F20FFF7B3FEA581207AFFF717
:1058700011FE0148C5714AE774040020B4040020F9
:1058800001488178417070477404002010B5FFF71B
:105890004BF810BD70470000034804490068884277
:1058A00001D0806B0047FEE7100000200048051083
:1058B00000F098FA012805D0044880F3088800F029
:1058C00095FCFEE7FEF7FCFFFBE700000060002010
:1058D000044805490068884202D08030406900478A
:1058E000FEE70000100000200048051003480449AE
:1058F0000068884201D0406D0047FEE7100000209C
:1059000000480510034804490068884201D0C06A75
:105910000047FEE7100000200048051030B505469E
:1059200085B00121092000F0F5F800F047F81F4983
:10593000800040188038C06F039000F03FF81C4989
:10594000800040188038C06F6946087400248C7449
:105950004C7403A8FFF700FB00F030F815498000F5
:1059600040188038C06F039000F028F8124980007A
:1059700040188038C06F6946087403A8FFF7ECFA36
:10598000032069460095087148718C71CC714C7286
:10599000087201208872684600F058F9002000F073
:1059A000F1F9012000F02AF905B030BD506305106F
:1059B00054630510586305105C63051001480078B6
:1059C00070470000B00400200149012008707047B2
:1059D000B00400201CB504460121084600F09AF8E6
:1059E0002046FFF70FFB0090062069460871012052
:1059F000887148716846FFF7AFFA204600F001F859
:105A00001CBD10B5FFF7FEFA0021FFF7EFFA10BD3D
:105A100010B5FFF7F7FA0121FFF7E8FA10BD10B54E
:105A20000446202000F0F8F80128FAD0204600F0C3
:105A3000B5F910BD0020104903E00A5C401C1018A5
:105A4000C0B20A5C002AF8D1C21C202A12D202225B
:105A50000A54212208184270082181700021C17067
:105A6000012180B2090441180920C006C160C16843
:105A7000C903FCD470470000740500202248027A54
:105A8000224801890020002A08D0022A37D0042A9F
:105A900037D0082A01D104210843704709228A43DC
:105AA00000D1202011228A4301D14022104321221B
:105AB0008A4301D18022104341228A4302D1FF222E
:105AC0000132104381228A4302D101225202104343
:105AD000FF2202328A4302D10122920210430C4A71
:105AE0008A4302D10122D202104305228A4301D106
:105AF00010221043C9438907CFD10821CCE70121E7
:105B0000CAE70221C8E700000000904000001048EA
:105B100001040000044A0129116A02D08143116284
:105B200070470143FBE70000000090400348044930
:105B30000068884201D0C06B0047FEE710000020DB
:105B40000048051010B52A49082088800321481F05
:105B5000FFF714FB0321081FFFF710FB03210020B0
:105B6000FFF70CFB03210120FFF708FB03210420B2
:105B7000FFF704FB03210520FFF700FB00210620AF
:105B8000FFF7FCFA03210720FFF7F8FA03210D20A5
:105B9000FFF7F4FA03210E20FFF7F0FA03210F209C
:105BA000FFF7ECFA03211120FFF7E8FA0321122096
:105BB000FFF7E4FA03211320FFF7E0FA0321142092
:105BC000FFF7DCFA03211520FFF7D8FA032116208E
:105BD000FFF7D4FA03211720FFF7D0FA0121084676
:105BE000FFF7A0F804490348086262B610BD000040
:105BF0000000104066000E0000009040054900289B
:105C0000086B02D00122104301E040084000086305
:105C100070470000000030400549002801DA49685B
:105C200000E0098B014201D001207047002070473D
:105C300000003040034804490068884201D0006DEC
:105C40000047FEE7100000200048051070B54B4DDE
:105C50000446286B4A4A0107206801D4010100E08C
:105C6000C1001046FEF736FE01464002020C4348D2
:105C700020308280D201891A0126C903F6038919CE
:105C8000090C3F2902D9491C8906890E0172027B41
:105C900023799F219B070A405B0E1A4302732A7FD8
:105CA0000A4061798907490E0A432A77017BA27964
:105CB000F723D2071940120F11430173297FA279EC
:105CC0001940D207120F11432977E179002943D0F7
:105CD00002220229017B44D011430173037B04217A
:105CE0000B4303732B7F13432B772A7F0A432A77B7
:105CF000296B012252029143227AD207920D11435D
:105D00002963296BFF2201329143227A9207D20F35
:105D1000120211432963296B012292039143627A93
:105D2000D207520C11432963296B627AB14392075F
:105D3000D20FD20311432963027BA37AEF21DB0741
:105D40000A40DB0E1A430273287F0840A17AC90774
:105D5000C90E0843287770BD027BFD210A400273FB
:105D600008E011430173037BFB210B4003732B7F7E
:105D700013432B772A7F0A40B9E700000000304028
:105D80000000127A044A117DC72340071940800E93
:105D9000014311757047000020003040C0050249E2
:105DA000C00D0880704700000000304003480449DF
:105DB0000068884201D0C06D0047FEE71000002057
:105DC000004805100FB410B503A9044B044A02980B
:105DD00000F032F810BC08BC04B0184797610510F9
:105DE000AC04002038B50B49002008600446FFF7DA
:105DF00045FE694608800888002803D1641CE4B287
:105E0000032CF4D30888202801D3002038BD0120BA
:105E100038BD00001400002002E008C8121F08C1AD
:105E2000002AFAD170477047002001E001C1121F1B
:105E3000002AFBD170470000FFB58FB00F46044623
:105E4000002606E025280AD0129A11999047641C72
:105E5000761C20780028F5D1304613B0F0BD00251F
:105E60000121A14A009500E00543641C23780846FF
:105E7000203B98401042F7D120782E2815D10420DD
:105E800005436078641C2A280AD101CF641C009065
:105E90000BE000990A22514330394018641C0090ED
:105EA0002078014630390929F3D920786C280ED0A2
:105EB00004DC4C2813D06A2812D104E074280ED0D8
:105EC0007A280DD10BE001204005054307E00121B0
:105ED000090562780D43824201D16D18641C641C6F
:105EE0002078864669284AD008DC0028B4D0582893
:105EF0006DD0632810D0642808D140E070286BD0A2
:105F0000732812D0752860D0782860D0129A704615
:105F100011999047761CE5E03878694608720020B0
:105F2000487202A80190012003E038680190002027
:105F3000C0433F1D69070CD5002500E06D1C00998A
:105F40008D420FDA8542F9DB0199495D0029F5D1CF
:105F500008E0002500E06D1C8542FCDB0199495DED
:105F60000029F8D1761907E0019801990078491CB9
:105F70000191129A119990476D1EF5D2B2E00A2054
:105F8000029000216802400F039102280CD001CF3B
:105F9000C117844600290DDA6246084652420021A4
:105FA000814194462D2008E0FF1DFF08FF0003CF2C
:105FB0008446EFE7280504D52B206A46107401209B
:105FC0003CE0E8073AD02020F7E70A2000E0102064
:105FD00000210391029007E010200290002104208C
:105FE00005430820039100906802400F022810D05A
:105FF00001CF0021844600200D9028071FD5704650
:1060000070280CD0029A1020039B42401A430CD0F7
:1060100015E0FF1DFF08FF0003CF8446EBE740209B
:106020006A46107401200D900CE06046084306D0CB
:1060300030206A4610747046507402200D907046ED
:10604000582804D029A001900DA80E900DE02CA096
:10605000F9E76046039B029AFEF77AFC019B8446AF
:106060009B5C0E9A521E0E92137060460843F0D14C
:106070000E9805A9081A20300190680701D50098EC
:1060800001E0012000900199884203DD014601985A
:10609000081A00E000200025009006E004A8129AEB
:1060A000405D119990476D1C761C0D988542F5DB7B
:1060B00004E0129A302011999047761C0099481EEE
:1060C00000900029F5DC08E00E980E990078491C34
:1060D0000E91129A11999047761C0199481E0190D1
:1060E0000029F1DC641CB4E60928010030313233A8
:1060F0003435363738396162636465660000000004
:1061000030313233343536373839414243444546ED
:106110000000000070477047704770477047704735
:1061200070477047704770477047704770477047B7
:1061300070477047704770477047704710B5029CB2
:10614000DAB22346FFF7B4FA10BD704770477047C4
:106150007047704770477047704710B5F6F7AEFE4E
:1061600010BD70477047704710B51046022901D125
:10617000FFF7B8F910BD10B5032806D8507811788C
:10618000000208431321F6F72BFE10BD704770473D
:1061900070477047704710B5C0B2FFF740FC012050
:1061A00010BD704710B5034901200870FFF768FB68
:1061B00010BD0000B104002070477047BFF34F8F3F
:1061C00003490248C860BFF34F8FFEE70400FA0599
:1061D00000ED00E0704770477047704770477047A8
:1061E000704770477047704770477047334D286855
:1061F0003349884209D1344C324820600021334869
:10620000FEF74CFE002020602860314A002014690F
:106210002E49304B10399C4202D10C69641C15D0B8
:1062200014699C4202D10C69002C0FD012699A4269
:1062300004D10A69284B9A4200D10846884207D106
:106240004168006880F308888847FEE71046F5E754
:10625000FFF778FCFFF7B8FBE1204002FFF75EFB99
:10626000172109031DA0FFF7ADFD4D21C90227A08D
:10627000FFF7A8FD012109042FA0FFF7A3FD2E249D
:106280004D252046FEF7F2FD641CA4B2AC42F8D9BD
:106290002E48FEF739FC002800D0FEE7FFF772F920
:1062A000002800D0FEE7EAF709FEFEF7DDFBFFF766
:1062B00099F90128F7D1FFF709F9F4E70400002064
:1062C000554201B0CCBCECFC14000020107005104D
:1062D00000480510DDCCBBAAAA5555AA4150505F15
:1062E000574954485F4F54415F53455256494345BF
:1062F0005F504147455F4E554D4245525F535441B3
:1063000052543A257820200A000000004150505F86
:10631000574954485F4F54415F534552564943458E
:106320005F504147455F4E554D4245525F454E4493
:106330003A257820200A0000534D5F4150505F53AA
:10634000495A453A257820200A0000006C63051060
:106350000001000001000000000800000100000032
:1063600040000000800000000040000000700610A7
:1063700000040000000400000078061094050020CE
:106380006421000012000300A300010004101700A4
:1063900074050020FFFFFFFF6400030048010000B8
:1063A000406405100800002004000000185E05107D
:1063B000446405100C00002004000000185E051065
:1063C000486405101000002004000000185E05104D
:1063D0004C6405101400002004000000185E051035
:1063E000506405101800002004000000185E05101D
:1063F000546405101C00002008000000185E051001
:106400005C6405103000002004000000185E0510D8
:1064100060640510C00000200C020000164A051040
:10642000686405106004002054000000185E051028
:10643000BC640510B4040020E0000000285E0510D4
:1064400000000000000000000048051000000000EF
:10645000000000000000000000000000000000003C
:1064600001FF01FF0111000011068A97F7C08506A0
:1064700011E3BAA70800200C9A6600000000000093
:1064800000000000080000000000000000001700ED
:1064900000000000000000000000000000000000FC
:1064A00000000000000000000000000000000000EC
:0C64B000000000000000000000010000DF
:04000005100548C1D9
:00000001FF
