:020000041005E5
:1070000000600020057E0510857C0510777B05104B
:10701000AA5555AA45554C4200000000000000004A
:10702000000000000000000000000000677E051066
:1070300000000000000000008F7D05107981051020
:10704000417A05106D7D0510000000000000000071
:1070500085820510657E0510A57605101184051042
:107060000000000000000000000000000000000020
:1070700000000000C97205107B7B0510797B0510AC
:10708000000000007D7B05107F7B0510817B0510D3
:10709000837B0510257E05108D7D0510F578051084
:1070A00000000000000000000000000000000000E0
:1070B00000000000000000000000000000000000D0
:1070C000EFF31482EFF309811C4880F31488BFF3B7
:1070D0006F8FF0B543464C4655465E466746F8B45A
:1070E000174CEFF30883236006B4164C2068164C47
:1070F0002060164C2068164C2060164C2068164CF8
:107100002060164C276800202060BFF34F8F30BFEF
:1071100027600B4C246884F3088882B003BCF8BC59
:107120009846A146AA46B346BC46F0BC04BC80F3D0
:10713000098881F31488BFF36F8F104700000000A7
:107140000800002004ED00E07804002024ED00E0B9
:107150007C04002000E200E08004002008002040C1
:107160000348854600F070F8004800479D8A0510E6
:107170000060002030B50B4601460020202201248B
:1071800009E00D46D5409D4205D31D469540491B5B
:107190002546954040191546521E002DF1DC30BDA4
:1071A00010B503461C460C43A40703D009E010C9E0
:1071B000121F10C3042AFAD203E00C781C70491C79
:1071C0005B1C521EF9D210BDF0B51FB4064600205C
:1071D00082B005464024019100901BE001992246AF
:1071E0000F46304600F042F8049A059B801A9941F8
:1071F00010D310461946224600F016F8361A8F4171
:107200000197224601200021009F00F00DF8381858
:107210004D4100902046641E0028DFDC019B009851
:107220002946324607B0F0BD10B5202A04DB0146DE
:10723000203A9140002010BD914020239C1A034623
:10724000E3401943904010BD064C0125064E05E071
:10725000E36807CC2B430C3C98471034B442F7D377
:10726000FFF782FF048C0510A48C051010B5202AAE
:1072700004DB0846203AD040002110BD0B46D34025
:10728000D0402024A21A91400843194610BD30B5C1
:107290008C180278401C13071B0F01D10378401C87
:1072A000120906D10278401C03E005780D70401CDD
:1072B000491C5B1EF9D101E00B70491C521EFBD129
:1072C000A142E6D3002030BD7047000010B5064C47
:1072D000A068800705D500F055FCA068022188430E
:1072E000A06000F085FE10BD84040020F0B52BA046
:1072F0000FC893B006AC0FC42CA00FC80FC42FA0AA
:107300000FC80FC4102206A9304800F03BFD304CD6
:10731000062301222D4902200094F5F7B4FD002830
:107320002FD12A4810220AA9103000F02BFD102678
:107330000027A01C0125254A009603960297019775
:10734000049505901423103202212088F5F754FD8E
:10735000002816D11D4810220EA9103000F012FD91
:10736000201D05900C20194A02950396049501975B
:1073700000901423103202212088F5F73DFD0028EB
:1073800005D014A001F046F8472013B0F0BDA28844
:10739000618819A001F03EF80020F6E7669A0C20FB
:1073A0000008969EE2119EB1E0F273D9669A0C2015
:1073B0000008969EE2119EB1E1F273D9669A0C2004
:1073C0000008969EE2119EB1E2F273D9B806002041
:1073D000900400204572726F72207768696C652096
:1073E000616464696E6720436861742073657276B6
:1073F0006963652E0A00000043686174205365725A
:10740000766963652061646465642E0A545820437C
:107410006861722048616E646C6520253034582C98
:1074200020525820436861722048616E646C652068
:10743000253034580A00000070B50E460E49154636
:107440008A88521C904209D1002404E0295D0BA0D7
:1074500000F0E0FF641CB442F8DB70BD4988891C71
:107460008842FAD128780128F7D10548016804221A
:107470001143016070BD00009004002025630000EE
:107480008C04002070B500210C4A03E0535C491CB9
:107490005918C9B2535C002BF8D1CE1C02243525F3
:1074A000202E04D2545451184D708870CB7004496A
:1074B0000C704D708870CB7070BD00009804002077
:1074C0001C00002010B53D493B4A0A603C4A4A6016
:1074D0003C4A8A603C4ACA603C4A0A613C4A4A616A
:1074E0003C4A8A613C4ACA613C4A0A623C4A4A6256
:1074F0003C4A8A623C4ACA623C4A0A633C4A4A6342
:107500003C4A8A633C4ACA633C4A0A643C4A4A642D
:107510003C4A8A643C4ACA643C4A0A653C4A4A6519
:107520003C4A8A653C4ACA653C4A0A663C4A4A6605
:107530003C4A8A663C4ACA663C4A0A673C4A4A67F1
:107540003C4A8A673C4ACA673C4A80310A603C4AE6
:107550004A603C4A8A603C4ACA603C4A0A613C4AEA
:107560004A613C4A8A613C4ACA613C4A0A623C4AD6
:107570004A623C4A8A623C4ACA623C4A0A633C4AC2
:107580004A633C4A8A633C4ACA633C4A0A643C4AAE
:107590004A643C4A8A643C4ACA643C4A0A653C4A9A
:1075A0004A653C4A8A653C4ACA653C4A0A663C4A86
:1075B0004A66E9F7C5FC10BD0D8A051028030020B6
:1075C000558A05109B8A0510598A0510998A05105D
:1075D000098A0510578A0510DB890510F389051003
:1075E000DD890510998905109D8905109F89051071
:1075F00093890510A389051095890510A1890510A7
:10760000918905109B89051097890510F989051046
:10761000FB890510F7890510F5890510A589051066
:10762000BF8905107D8905108389051081890510A2
:107630008B8905108F890510878905108D890510A4
:1076400089890510858905107F890510B78905107E
:10765000B9890510BD890510B5890510B3890510D4
:10766000D9890510C3890510C1890510C98905107C
:10767000C5890510BB890510758A0510718A05102A
:10768000898A0510978A0510938A05108B8A051040
:10769000958A0510918A05108F8A05108D8A05102C
:1076A000757B051010B5F1F7B5FF10BD30B52CA0F6
:1076B0008BB003C8069007912BA003C808AA03C289
:1076C000012506210020083AF6F7FCF8040002D054
:1076D000014627A03AE004210120F6F75DF8F5F70E
:1076E0008BFD040002D001462AA02FE032A000F05A
:1076F00091FE0AA904A80191009005AB082200217F
:107700002846F5F747F9040002D0014632A01DE0F3
:107710003AA000F07FFE0821002006AA01AC0091EB
:1077200007C403466846028A818A0020F5F706FFEF
:10773000040002D0014639A008E045A000F06AFE2E
:10774000FFF7D4FD040006D001464DA000F062FE14
:1077500020460BB030BD53A000F05CFE0020F8E7DF
:10776000426C75654E524731AA0000E1800200006C
:1077700053657474696E672042445F4144445220EB
:107780006661696C65643A203078253032780D0A7C
:10779000000000004572726F7220696E206163699B
:1077A0005F676174745F696E697428293A20307864
:1077B000253032780D0A00006163695F6761747477
:1077C0005F696E69742829202D2D3E20535543434F
:1077D0004553530D0A0000004572726F7220696EA6
:1077E000206163695F6761705F696E697428292031
:1077F0003078253032780D0A000000006163695F3F
:107800006761705F696E69742829202D2D3E2053B1
:107810005543434553530D0A000000004572726FF3
:107820007220696E204761747420557064617465BC
:10783000206368617261637465726973746963203F
:1078400076616C7565203078253032780D0A00003D
:107850006163695F676174745F7570646174655FAB
:10786000636861725F76616C75655F6578742829FD
:10787000202D2D3E20535543434553530D0A000000
:107880004572726F7220696E204164645F43686163
:10789000745F53657276696365203078253032787D
:1078A0000D0A00004164645F436861745F53657250
:1078B000766963652829202D2D3E20535543434585
:1078C00053530D0A0000000010B5084806494161F5
:1078D00007490723CA691202120A44042243CA61F3
:1078E00000218161036110BD7E3E000000E000E0E8
:1078F00004ED00E07047000070B58AB00D46064602
:107900001C2243A103A8FFF74BFC684600F002F9D4
:107910000924E406002E62D04020694688764C2077
:10792000C87520200875B22048775B2008A9087028
:107930003E4B986A3E49020C8A420AD108AEF27860
:107940008F26324008AEF270F2784007400E0243B4
:10795000F270586A020C8A420AD16B465A7CCF23D5
:107960001A406B465A745A7C8007800E02435A7440
:107970002E484038006B020C8A4209D108AAD178FF
:1079800089088900D170D1788007800F0143D170B8
:107990006946C87DFB2108406946C87548788978E2
:1079A00000010843122808D308A9C8780421084315
:1079B00008A9C870C878FFF765FD03A8012180B247
:1079C00009044018E060E068C003FCD469464878C8
:1079D000897800010843122801D300F049FB1548BB
:1079E000018B0029FCD00121018317218181002115
:1079F0000161002D06D020691021084022690A404B
:107A00008242FBD00D490C4808600AB070BD0000EE
:107A1000023F00023E30023C20023B4C023A400250
:107A200039B202345B02350B00000000C0070010C1
:107A300055AA000000001048CCBCECFC140000204B
:107A40007047F0B502790124A4070168002A02D02A
:107A5000062A03D006E063688B4302E063680022D5
:107A60000B43636000210F270368CB40DB07DB0F6C
:107A700019D0082909D2E56A8B003E469E40B543DD
:107A800016469E403543E5620DE00B46083B082B49
:107A900009D28B003D46203B266B9D40AE431546E8
:107AA0009D402E432663491CC9B21A29DCD3417973
:107AB0000129E168026809D09143E16081790129D7
:107AC000A168006804D08143A160F0BD1143F4E7D0
:107AD0000143F9E7012189070968014201D001202A
:107AE000704700207047000010B5094C002801D0F5
:107AF000012806D000F048FAC00000198038806FD5
:107B000010BD00F041FAC00000198038C06F10BDF0
:107B1000B88B051030B5124A114C283A114BD16977
:107B20000906090F4170D2691207120F827022688C
:107B30000D4D01244260AA4208D11A680B4B9A42AB
:107B400001D1042200E00222027000E0047000294A
:107B500000D144700649898A491C8900816030BD82
:107B6000280090401C00001041A0000244A000F238
:107B7000000010407047FEE770477047704770473D
:107B80007047704730B51CA003C893B01291119094
:107B90001C221BA107A8FFF703FB002011AA07ABBB
:107BA0001A21145C0D1A401C5C550628F9DB1BA039
:107BB00007C80EAB07C300210846F8F74FFA0020AC
:107BC0000390049005900EAA09216C46069007C404
:107BD000034602460146F5F769F8010003D012A0FA
:107BE00000F018FC02E01CA000F014FC07A91B2008
:107BF000F5F7FAF813B030BDAA0000E180020000EA
:107C0000020A000909436861745F315F320DFF01A8
:107C1000050000000000000000000000094368614A
:107C2000745F315F320000004572726F7220696EBE
:107C3000206163695F6761705F7365745F64697316
:107C4000636F76657261626C6528293A2030782509
:107C50003032780D0A0000006163695F6761705F10
:107C60007365745F646973636F76657261626C6576
:107C70002829202D2D3E20535543434553530D0AAB
:107C8000000000007047000070B5817801250029D0
:107C90002FD0002141564278FF26002911DA0B0728
:107CA0001B0F083B9C08174BA400E318DC698907ED
:107CB000C90E8E409207120EB4438A401443DC6111
:107CC0000DE08C08104BA400E3181C688907C90E4E
:107CD0008E409207120EB4438A4014431C60007811
:107CE000C106C90E8D404009084980004018056052
:107CF00070BD0078C106C90E8D404009034980005F
:107D00008031F3E700ED00E000E400E000E100E096
:107D10008307FF22DB0E9A408907090E994000284D
:107D20000BDA0007000F0838830808489B00181872
:107D3000C36993430B43C3617047830804489B00A6
:107D40001818036893430B430360704700ED00E08D
:107D500000E400E0BFF34F8F03490248C860BFF35F
:107D60004F8FFEE70400FA0500ED00E070470000C9
:107D7000034902480860FFF7EDFF0000554201B0DB
:107D80000400002010B5FFF70BFA10BD70477047D4
:107D9000F3B581B006460024164F174D25E06888DC
:107DA0001649884201D3002068806988305D785484
:107DB000305D00F06FF86888401C80B23918688028
:107DC0002039C97F0A290ED101280AD0002139544F
:107DD000A86840221043A860094A10201060A980BA
:107DE00001E000206880641CE4B202988442D6D38B
:107DF000FEBD0000B804002084040020FF01000044
:107E000080E100E000F016FB012805D0044880F373
:107E1000088800F043FEFEE7FFF7A2F9FBE7000049
:107E200000600020704700000D49012289B2120451
:107E30008A1830B50921C906002804D0CA60C8686C
:107E4000C003FCD430BD064B9C789878FB252840B5
:107E50009870CA60C868C003FCD49C7030BD000034
:107E60001C0000207047704710B505490860E120EC
:107E7000400200F029F8012000F076F810BD000063
:107E80006C040020024A1268002A00D01047704794
:107E90006C04002010B500F09FF810BD08B510204C
:107EA00000F0E6F9002808D108BD00F097FA69460D
:107EB000087001216846FFF7E5FF102000F0CAF9BD
:107EC0000028F2D008BD000030B5054685B001217C
:107ED000092000F045F900F057F81F4980004018CC
:107EE0008038C06F039000F04FF81C4980004018A4
:107EF0008038C06F6946087400248C744C7403A8E1
:107F0000FFF79FFD00F040F81549800040188038C9
:107F1000C06F039000F038F8124980004018803894
:107F2000C06F6946087403A8FFF78BFD03206946FC
:107F30000095087148718C71CC714C7208720120E7
:107F40008872684600F0AEF9002000F04DFA01207A
:107F500000F072F905B030BDC08B0510C48B051060
:107F6000C88B0510CC8B051038B504460420694633
:107F70000870032048708C706846FFF785FE214624
:107F8000102000F083F938BD0148007870470000E8
:107F90007404002001490120087070477404002017
:107FA00010B5FFF7A1FDFFF795FD002800D00120D7
:107FB00010BD1CB504460121084600F0D1F820464A
:107FC000FFF792FD009000206946087188714871A2
:107FD0006846FFF736FD1CBD10B50446202000F0B2
:107FE00039F90128FAD0204600F00AFA10BD000045
:107FF0007FB51A4EB06840062AD5B06800258006C5
:10800000002825DB18E00C1A142C00DD1424144978
:10801000A2B208180390E1B21248019500920291B1
:1080200002881148012301883088F5F787FA64280F
:108030000FD0B0880019B080B08871888842E2D330
:10804000B06840218843B0600849758010200860FE
:108050007FBDB06820210843B0607FBD840400204C
:10806000B8040020920400209004002000E100E009
:108070000020104903E00A5C401C1018C0B20A5CE2
:10808000002AF8D1C21C202A12D202220A5421222C
:1080900008184270082181700021C170012180B24E
:1080A000090441180920C006C160C168C903FCD495
:1080B000704700009804002002480168491C0160D4
:1080C00070470000600400202248027A224801899B
:1080D0000020002A08D0022A37D0042A37D0082AE4
:1080E00001D104210843704709228A4300D120208E
:1080F00011228A4301D14022104321228A4301D117
:108100008022104341228A4302D1FF2201321043D0
:1081100081228A4302D1012252021043FF220232FD
:108120008A4302D10122920210430C4A8A4302D1AF
:108130000122D202104305228A4301D110221043AA
:10814000C9438907CFD10821CCE70121CAE7022121
:10815000C8E7000000009040000010480104000043
:10816000044A0129116A02D0814311627047014318
:10817000FBE700000000904010B5FFF79DFF10BD29
:1081800010B52A49082088800321481FFFF7C0FD49
:108190000321081FFFF7BCFD03210020FFF7B8FDF6
:1081A00003210120FFF7B4FD03210420FFF7B0FDF8
:1081B00003210520FFF7ACFD00210620FFF7A8FDF5
:1081C00003210720FFF7A4FD03210D20FFF7A0FDE9
:1081D00003210E20FFF79CFD03210F20FFF798FDE0
:1081E00003211120FFF794FD03211220FFF790FDDA
:1081F00003211320FFF78CFD03211420FFF788FDD6
:1082000003211520FFF784FD03211620FFF780FDD1
:1082100003211720FFF77CFD01210846FFF76CFBC7
:1082200004490348086262B610BD00000000104017
:1082300066000E000000904005490028086B02D03F
:108240000122104301E0400840000863704700002D
:10825000000030400549002801DA496800E0098B38
:10826000014201D0012070470020704700003040DB
:108270000349898B014201D00120704700207047DB
:108280002000304010B5FFF709FE10BD044A002958
:10829000118B01D0014300E081431183704700003E
:1082A0002000304070B54B4D0446286B4A4A010708
:1082B000206801D4010100E0C1001046FEF75AFF1A
:1082C00001464002020C434820308280D201891AC4
:1082D0000126C903F6038919090C3F2902D9491C53
:1082E0008906890E0172027B23799F219B070A4030
:1082F0005B0E1A4302732A7F0A4061798907490E8F
:108300000A432A77017BA279F723D2071940120F7B
:1083100011430173297FA2791940D207120F11432B
:108320002977E179002943D002220229017B44D038
:1083300011430173037B04210B4303732B7F13430E
:108340002B772A7F0A432A77296B01225202914315
:10835000227AD207920D11432963296BFF22013241
:108360009143227A9207D20F120211432963296B9B
:10837000012292039143627AD207520C114329637E
:10838000296B627AB1439207D20FD203114329635A
:10839000027BA37AEF21DB070A40DB0E1A4302734C
:1083A000287F0840A17AC907C90E0843287770BD05
:1083B000027BFD210A40027308E011430173037B35
:1083C000FB210B4003732B7F13432B772A7F0A403B
:1083D000B9E70000000030400000127A0148008830
:1083E000C0B2704700003040044A117DC7234007E7
:1083F0001940800E01431175704700002000304085
:10840000C0050249C00D08807047000000003040E0
:10841000704700000FB410B503A9044B044A02983A
:1084200000F072F810BC08BC04B01847FD890510B4
:1084300070040020FEB52649002008600446FFF7BE
:1084400043FE694608800888002803D1641CE4B212
:10845000032CF4D30888202837D30888012440054A
:1084600026D40846FFF756FB69464878897800010C
:108470000843122800D2002416480068000705D4DB
:10848000002C15D00120FFF7CFFC11E00925ED06E7
:108490002869114E31682830081A0002001200289D
:1084A00006DD002C02D00120FFF7BEFC30686860BA
:1084B0000A4901200870FEF72CFEBFF34F8F0949CF
:1084C0000748C860BFF34F8FFEE70120FEBD0000E4
:1084D00014000020C0000020180000200C00002024
:1084E0000400FA0500ED00E002E008C8121F08C110
:1084F000002AFAD170477047002001E001C1121F25
:10850000002AFBD170470000FFB591B00F46054629
:10851000002606E025280AD0149A139990476D1C6E
:10852000761C28780028F5D1304615B0F0BD00241F
:1085300000940121F34A029400E004436D1C2B785F
:108540000846203B98401042F7D128782A280ED0C0
:10855000022128780246303A092A15D8009A0A23BF
:108560005A43303A80180C436D1C0090F1E701CF5C
:108570000090002805DA012040030443009840429F
:108580000090022004436D1C28782E2815D1042069
:10859000044368786D1C2A280AD101CF6D1C029013
:1085A0000BE002990A225143303940186D1C0290A9
:1085B0002878014630390929F3D928786C2810D059
:1085C00006DC4C281AD068280ED06A2817D104E09F
:1085D000742813D07A2812D110E0012040050443FA
:1085E0000CE00121090501E0032109050C4369782C
:1085F000814203D10120000524186D1C6D1C2878D0
:1086000003906E281ED00CDC632831D004DC0028D7
:108610008AD0582811D1B2E064287BD069280CD1C7
:1086200078E073282DD004DC6F2870D0702804D136
:10863000A7E075286CD078286BD0149A13999047CE
:10864000761C62E06002400F022807D003280AD09F
:10865000042838680AD006603F1D56E03868F117D4
:1086600006604160F8E738680680F5E70670F3E7D2
:108670003878694608740020487404A803900120E3
:1086800003E0386803900020C0433F1D61070FD509
:10869000002101E00199491C029A0191914213DAEB
:1086A0008142F7DB019A0399895C0029F2D10BE042
:1086B000002101E00199491C01918142FADB019AF4
:1086C0000399895C0029F5D101990098139A401A01
:1086D00000902146149B00F03BF90199801946183F
:1086E00007E0039803990078491C0391149A1399A1
:1086F00090470198401E0190401CF2D12146149BE6
:10870000139A009800F014F986196D1C09E741E0EE
:1087100033E034E00A200021049005916002410F0B
:10872000022905D001CFC2179446032905D007E0DE
:10873000FF1DFF08FF0003CF06E000B2C2179446FA
:10874000042902D140B2C1178C46002261469445EB
:1087500006DA0A460021404291418C462D2102E072
:10876000210504D52B216A461176012103E0E1079A
:1087700001D02021F7E7019154E00A200BE01020FE
:1087800009E01020049000210420044308200591F2
:10879000029003E008200021059104906002410F3F
:1087A000022905D001CF00229446032906D006E015
:1087B000FF1DFF08FF0003CF8C4603E080B20429B1
:1087C00000D1C0B20021019121072BD50399702956
:1087D00006D0049A1021059B4A401A4305D00EE0AA
:1087E00040216A461176012108E06146014306D026
:1087F00030216A4611760399517602210191049A3B
:108800000821059B4A401A430CD16146014301D11E
:10881000610707D530216A4611760121019102993D
:10882000491E02910399582904D037A103910FA939
:108830000F910DE039A1F9E76146059B049AFEF717
:10884000C3FC039B8C469B5C0F9A521E0F921370C5
:1088500061460143F0D10F9807A9081A2030039010
:10886000600704D5012000048443029801E0012040
:1088700002900399884201DD401A00E0002041186F
:108880000290019809180098401A0090E00306D45D
:108890002146149B139A009800F05AF8861900207C
:1088A000049008E006A9085C149A1399904704986C
:1088B000401C761C049001998842F3DBE0030CD540
:1088C0002146149B139A009800F042F8861904E0A0
:1088D000149A302013999047761C0299481E0290F2
:1088E0000029F5DC08E00F980F990078491C0F91DA
:1088F000149A13999047761C0399481E03900029F7
:10890000F1DCFBE6092801003031323334353637EB
:1089100038396162636465660000000030313233CB
:10892000343536373839414243444546000000006B
:10893000F8B5044600251E461746880404D405E011
:1089400039462020B0476D1C641EF9D52846F8BD75
:10895000FFB50446002581B01E46C80301D5302767
:1089600000E02027880404D505E038460399B04785
:108970006D1C641EF9D5284605B0F0BD70477047E0
:10898000704770477047704770477047704770472F
:10899000704770477047704770477047704770471F
:1089A0007047704710B508461946029AFEF744FD15
:1089B00010BD7047704770477047704770477047E9
:1089C0007047704770470000024881682022914339
:1089D00081607047840400207047704710B50328F9
:1089E00006D850781178000208431321F4F7F8F9FB
:1089F00010BD7047704770477047704710B5C0B2E0
:108A0000FFF7EAFA012010BD7047000010488168A6
:108A100049084900816081680222114381608168B0
:108A200004229143816081682022914381608168A2
:108A3000D2009143816081685200914381608168D6
:108A40005200914381608168520091438160704778
:108A50008404002070477047BFF34F8F03490248DA
:108A6000C860BFF34F8FFEE70400FA0500ED00E099
:108A70007047000003480180816801221143816032
:108A800070470000840400207047704770477047AB
:108A9000704770477047704770477047FFF770FB2B
:108AA000FFF778FAFEF710FF1448FFF7DDF91448D6
:108AB000FEF708FD010003D012A0FFF7ABFCFEE7B4
:108AC0001DA11FA0FFF7A6FCFEF7F0FD010003D0DB
:108AD00029A0FFF79FFCFEE731A0FFF79BFC0020D9
:108AE000FFF767FAE8F7EAF9FEF7F0FB0020FFF777
:108AF00057FA0028F6D1FFF73BF9F3E7917D05100F
:108B0000D08B05104572726F7220696E20426C75B1
:108B1000654E52475F537461636B5F496E69746958
:108B2000616C697A6174696F6E282920307825300C
:108B300032780D0A00000000312E302E3000000087
:108B4000426C75654E52472D3120424C452043689A
:108B5000617420536572766572204170706C696330
:108B60006174696F6E202876657273696F6E3A2042
:108B70002573290D0A000000434841545F4465767F
:108B8000696365496E697428292D2D3E2046616907
:108B90006C6564203078253032780D0A00000000C2
:108BA000424C4520537461636B20496E697469615E
:108BB0006C697A6564200A00002000002000000033
:108BC000000100000100000000080000010000009A
:108BD0000070061000040000000400000078061079
:108BE000D80600209C2000000E0003007C0001003D
:108BF0000410170098040020FFFFFFFF640003002B
:108C000048010000A48C05100800002004000000AA
:108C1000E8840510A88C05100C000020040000005A
:108C2000E8840510AC8C0510100000200400000042
:108C3000E8840510B08C051014000020040000002A
:108C4000E8840510B48C0510180000200400000012
:108C5000E8840510B88C05101C00002008000000F6
:108C6000E8840510C08C05103000002004000000CE
:108C7000E8840510C48C0510C00000200C02000020
:108C80008E720510CC8C05106004002038000000A6
:108C9000E8840510048D05109804002040020000AF
:108CA000F8840510000000000000000000700510AE
:108CB00000000000000000000000000000000000B4
:108CC0000000000001FF01FF011100000000000092
:108CD0000000000000000000000000000000000094
:108CE0000000000000000000000000000000000084
:108CF0000000000000000000020000000000000072
:048D0000000000006F
:040000051005716110
:00000001FF
