:020000041005E5
:10D800000060002065E60510E5E40510D7E305108B
:10D81000AA5555AA45554C420000000000000000E2
:10D82000000000000000000000000000C7E6051036
:10D830000000000000000000EFE50510D9E9051028
:10D840005DE20510CDE505100000000000000000BD
:10D85000E5EA0510C5E60510A5DE051071EC05101A
:10D8600000000000000000000000000000000000B8
:10D8700000000000C9DA0510DBE30510D9E305104C
:10D8800000000000DDE30510DFE30510E1E3051013
:10D89000E3E3051085E60510EDE50510F5E005105C
:10D8A0000000000000000000000000000000000078
:10D8B0000000000000000000000000000000000068
:10D8C000EFF31482EFF309811C4880F31488BFF34F
:10D8D0006F8FF0B543464C4655465E466746F8B4F2
:10D8E000174CEFF30883236006B4164C2068164CDF
:10D8F0002060164C2068164C2060164C2068164C90
:10D900002060164C276800202060BFF34F8F30BF87
:10D9100027600B4C246884F3088882B003BCF8BCF1
:10D920009846A146AA46B346BC46F0BC04BC80F368
:10D93000098881F31488BFF36F8F1047000000003F
:10D940000800002004ED00E07804002024ED00E051
:10D950007C04002000E200E0800400200800204059
:10D960000348854600F070F80048004709F30510A9
:10D970000060002030B50B46014600202022012423
:10D9800009E00D46D5409D4205D31D469540491BF3
:10D990002546954040191546521E002DF1DC30BD3C
:10D9A00010B503461C460C43A40703D009E010C978
:10D9B000121F10C3042AFAD203E00C781C70491C11
:10D9C0005B1C521EF9D210BDF0B51FB406460020F4
:10D9D00082B005464024019100901BE00199224647
:10D9E0000F46304600F042F8049A059B801A994190
:10D9F00010D310461946224600F016F8361A8F4109
:10DA00000197224601200021009F00F00DF83818F0
:10DA10004D4100902046641E0028DFDC019B0098E9
:10DA20002946324607B0F0BD10B5202A04DB014676
:10DA3000203A9140002010BD914020239C1A0346BB
:10DA4000E3401943904010BD064C0125064E05E009
:10DA5000E36807CC2B430C3C98471034B442F7D30F
:10DA6000FFF782FF70F4051010F5051010B5202A9D
:10DA700004DB0846203AD040002110BD0B46D340BD
:10DA8000D0402024A21A91400843194610BD30B559
:10DA90008C180278401C13071B0F01D10378401C1F
:10DAA000120906D10278401C03E005780D70401C75
:10DAB000491C5B1EF9D101E00B70491C521EFBD1C1
:10DAC000A142E6D3002030BD7047000010B5064CDF
:10DAD000A068800705D500F085FCA0680221884376
:10DAE000A06000F0B5FE10BD84040020F0B52BA0AE
:10DAF0000FC893B006AC0FC42CA00FC80FC42FA042
:10DB00000FC80FC4102206A9304800F06BFD304C3E
:10DB1000062301222D4902200094F2F742FD00283D
:10DB20002FD12A4810220AA9103000F05BFD1026E0
:10DB30000027A01C0125254A00960396029701970D
:10DB4000049505901423103202212088F2F7E2FC9C
:10DB5000002816D11D4810220EA9103000F042FDF9
:10DB6000201D05900C20194A0295039604950197F3
:10DB700000901423103202212088F2F7CBFC0028F9
:10DB800005D014A001F076F8472013B0F0BDA288AC
:10DB9000618819A001F06EF80020F6E7669A0C2063
:10DBA0000008969EE2119EB1E0F273D9669A0C20AD
:10DBB0000008969EE2119EB1E1F273D9669A0C209C
:10DBC0000008969EE2119EB1E2F273D9B8060020D9
:10DBD000900400204572726F72207768696C65202E
:10DBE000616464696E67204368617420736572764E
:10DBF0006963652E0A0000004368617420536572F2
:10DC0000766963652061646465642E0A5458204314
:10DC10006861722048616E646C6520253034582C30
:10DC200020525820436861722048616E646C652000
:10DC3000253034580A00000070B50E460E491546CE
:10DC40008A88521C904209D1002404E0295D0BA06F
:10DC500001F010F8641CB442F8DB70BD4988891CDF
:10DC60008842FAD128780128F7D1054801680422B2
:10DC70001143016070BD0000900400202563000086
:10DC80008C04002070B500210C4A03E0535C491C51
:10DC90005918C9B2535C002BF8D1CE1C022435258B
:10DCA000202E04D2545451184D708870CB70044902
:10DCB0000C704D708870CB7070BD0000980400200F
:10DCC0001C00002010B53D493B4A0A603C4A4A60AE
:10DCD0003C4A8A603C4ACA603C4A0A613C4A4A6102
:10DCE0003C4A8A613C4ACA613C4A0A623C4A4A62EE
:10DCF0003C4A8A623C4ACA623C4A0A633C4A4A63DA
:10DD00003C4A8A633C4ACA633C4A0A643C4A4A64C5
:10DD10003C4A8A643C4ACA643C4A0A653C4A4A65B1
:10DD20003C4A8A653C4ACA653C4A0A663C4A4A669D
:10DD30003C4A8A663C4ACA663C4A0A673C4A4A6789
:10DD40003C4A8A673C4ACA673C4A80310A603C4A7E
:10DD50004A603C4A8A603C4ACA603C4A0A613C4A82
:10DD60004A613C4A8A613C4ACA613C4A0A623C4A6E
:10DD70004A623C4A8A623C4ACA623C4A0A633C4A5A
:10DD80004A633C4A8A633C4ACA633C4A0A643C4A46
:10DD90004A643C4A8A643C4ACA643C4A0A653C4A32
:10DDA0004A653C4A8A653C4ACA653C4A0A663C4A1E
:10DDB0004A66E3F771FD10BD79F2051034030020C7
:10DDC000C1F2051007F30510C5F2051005F30510A3
:10DDD00075F20510C3F2051047F205105FF2051049
:10DDE00049F2051005F2051009F205100BF20510B5
:10DDF000FFF105100FF2051001F205100DF20510EC
:10DE0000FDF1051007F2051003F2051065F205108B
:10DE100067F2051063F2051061F2051011F20510AA
:10DE20002BF20510E9F10510EFF10510EDF10510E9
:10DE3000F7F10510FBF10510F3F10510F9F10510EC
:10DE4000F5F10510F1F10510EBF1051023F20510C5
:10DE500025F2051029F2051021F205101FF2051018
:10DE600045F205102FF205102DF2051035F20510C0
:10DE700031F2051027F20510E1F20510DDF2051070
:10DE8000F5F2051003F30510FFF20510F7F2051087
:10DE900001F30510FDF20510FBF20510F9F2051073
:10DEA000D5E3051010B5EEF72BFB10BD30B52CA057
:10DEB0008BB003C8069007912BA003C808AA03C221
:10DEC000012506210020083AF3F78AF8040002D061
:10DED000014627A03AE004210120F2F7EBFFF2F718
:10DEE00019FD040002D001462AA02FE032A000F064
:10DEF000C1FE0AA904A80191009005AB08220021E7
:10DF00002846F1F798FF040002D0014632A01DE038
:10DF10003AA000F0AFFE0821002006AA01AC009153
:10DF200007C403466846028A818A0020F2F794FEFD
:10DF3000040002D0014639A008E045A000F09AFE96
:10DF4000FFF7D4FD040006D001464DA000F092FE7C
:10DF500020460BB030BD53A000F08CFE0020F8E747
:10DF6000426C75654E524731AA0000E18002000004
:10DF700053657474696E672042445F414444522083
:10DF80006661696C65643A203078253032780D0A14
:10DF9000000000004572726F7220696E2061636933
:10DFA0005F676174745F696E697428293A203078FC
:10DFB000253032780D0A00006163695F676174740F
:10DFC0005F696E69742829202D2D3E2053554343E7
:10DFD0004553530D0A0000004572726F7220696E3E
:10DFE000206163695F6761705F696E6974282920C9
:10DFF0003078253032780D0A000000006163695FD7
:10E000006761705F696E69742829202D2D3E205349
:10E010005543434553530D0A000000004572726F8B
:10E020007220696E20476174742055706461746554
:10E0300020636861726163746572697374696320D7
:10E0400076616C7565203078253032780D0A0000D5
:10E050006163695F676174745F7570646174655F43
:10E06000636861725F76616C75655F657874282995
:10E07000202D2D3E20535543434553530D0A000098
:10E080004572726F7220696E204164645F436861FB
:10E09000745F536572766963652030782530327815
:10E0A0000D0A00004164645F436861745F536572E8
:10E0B000766963652829202D2D3E2053554343451D
:10E0C00053530D0A0000000010B50848064941618D
:10E0D00007490723CA691202120A44042243CA618B
:10E0E00000218161036110BDFE7C000000E000E0C2
:10E0F00004ED00E070470000F3B58BB005461C222C
:10E1000048A103A8FFF74CFC684600F033F9092446
:10E110000126E406002D67D04420694688764848E9
:10E12000017A314301724C206946C8752020087578
:10E13000B22048775B2008A90870424A906A424999
:10E14000030C8B420AD108AFFB788F273B4008AF06
:10E15000FB70FB784007400E0343FB70506A020CD3
:10E160008A420AD16B465A7CCF231A406B465A74B6
:10E170005A7C8007800E02435A7432484038006B44
:10E18000020C8A4209D108AAD17889088900D17085
:10E19000D1788007800F0143D1706946C87DFB218B
:10E1A00008406946C87548788978000108431228F4
:10E1B00008D308A9C8780421084308A9C870C878FA
:10E1C000FFF760FD03A8012180B209044018E06058
:10E1D000E068C003FCD469464878897800010843A8
:10E1E000122801D300F074FB1849088B0028FCD0DA
:10E1F0000E8317208881002008610C98002806D023
:10E20000216910200140226902408A42FBD0002D82
:10E2100002D00F49152008700F490E4808600DB054
:10E22000F0BD0000023F00023E30023C20023B4CA9
:10E23000023A400239B202345B02350B00000000A2
:10E2400000002040C007001055AA00000000104840
:10E250000000C040CCBCECFC140000207047000063
:10E26000F0B5027901239B070168002A02D0062A33
:10E2700003D006E05C688C4302E05C6800220C433B
:10E280005C6000210F240568CD40ED07ED0F37D00D
:10E29000082909D2DE6A8D002746AF40BE431746E3
:10E2A000AF403E43DE622BE00D46083D082D0AD20A
:10E2B0008D002646203D1F6BAE40B7431646AE404C
:10E2C00037431F631CE00D46103D082D0AD28D0018
:10E2D0002646403D5F6BAE40B7431646AE403743DF
:10E2E0005F630DE017290BD9114E8D002746603D65
:10E2F000368BAF40BE431746AF400D4D3E432E8395
:10E30000491CC9B21A29BED341790129D9680268CA
:10E3100009D09143D960817901299968006804D0B6
:10E3200081439960F0BD1143F4E70143F9E7000030
:10E3300020000040012189070968014201D0012025
:10E34000704700207047000010B5094C002801D02C
:10E35000012806D000F048FAC00000198038806F0C
:10E3600010BD00F041FAC00000198038C06F10BD28
:10E3700024F4051030B5124A114C283A114BD169DA
:10E380000906090F4170D2691207120F82702268C4
:10E390000D4D01244260AA4208D11A680B4B9A42E3
:10E3A00001D1042200E00222027000E00470002982
:10E3B00000D144700649898A491C8900816030BDBA
:10E3C000280090401C00001041A0000244A000F270
:10E3D000000010407047FEE7704770477047704775
:10E3E0007047704730B51CA003C893B012911190CC
:10E3F0001C221BA107A8FFF7D3FA002011AA07AB24
:10E400001A21145C0D1A401C5C550628F9DB1BA070
:10E4100007C80EAB07C300210846F5F79DFE002094
:10E420000390049005900EAA09216C46069007C43B
:10E43000034602460146F1F7DBFE010003D012A0BD
:10E4400000F018FC02E01CA000F014FC07A91B203F
:10E45000F2F758F813B030BDAA0000E180020000C6
:10E46000020A000909436861745F315F320DFF01E0
:10E470000500000000000000000000000943686182
:10E48000745F315F320000004572726F7220696EF6
:10E49000206163695F6761705F7365745F6469734E
:10E4A000636F76657261626C6528293A2030782541
:10E4B0003032780D0A0000006163695F6761705F48
:10E4C0007365745F646973636F76657261626C65AE
:10E4D0002829202D2D3E20535543434553530D0AE3
:10E4E000000000007047000070B581780125002908
:10E4F0002FD0002141564278FF26002911DA0B0760
:10E500001B0F083B9C08174BA400E318DC69890724
:10E51000C90E8E409207120EB4438A401443DC6148
:10E520000DE08C08104BA400E3181C688907C90E85
:10E530008E409207120EB4438A4014431C60007848
:10E54000C106C90E8D404009084980004018056089
:10E5500070BD0078C106C90E8D4040090349800096
:10E560008031F3E700ED00E000E400E000E100E0CE
:10E570008307FF22DB0E9A408907090E9940002885
:10E580000BDA0007000F0838830808489B001818AA
:10E59000C36993430B43C3617047830804489B00DE
:10E5A0001818036893430B430360704700ED00E0C5
:10E5B00000E400E0BFF34F8F03490248C860BFF397
:10E5C0004F8FFEE70400FA0500ED00E07047000001
:10E5D000034902480860FFF7EDFF0000554201B013
:10E5E0000400002010B5FFF7DBF910BD704770473D
:10E5F000F3B581B006460024164F174D25E0688814
:10E600001649884201D3002068806988305D7854BB
:10E61000305D00F06FF86888401C80B2391868805F
:10E620002039C97F0A290ED101280AD00021395486
:10E63000A86840221043A860094A10201060A980F1
:10E6400001E000206880641CE4B202988442D6D3C2
:10E65000FEBD0000B804002084040020FF0100007B
:10E6600080E100E000F016FB012805D0044880F3AB
:10E67000088800F049FEFEE7FFF772F9FBE70000AB
:10E6800000600020704700000D49012289B2120489
:10E690008A1830B50921C906002804D0CA60C868A4
:10E6A000C003FCD430BD064B9C789878FB252840ED
:10E6B0009870CA60C868C003FCD49C7030BD00006C
:10E6C0001C0000207047704710B505490860E12024
:10E6D000400200F029F8012000F076F810BD00009B
:10E6E0006C040020024A1268002A00D010477047CC
:10E6F0006C04002010B500F09FF810BD08B5102084
:10E7000000F0E6F9002808D108BD00F097FA694644
:10E71000087001216846FFF7E5FF102000F0CAF9F4
:10E720000028F2D008BD000030B5054685B00121B3
:10E73000092000F045F900F057F81F498000401803
:10E740008038C06F039000F04FF81C4980004018DB
:10E750008038C06F6946087400248C744C7403A818
:10E76000FFF77EFD00F040F8154980004018803822
:10E77000C06F039000F038F81249800040188038CC
:10E78000C06F6946087403A8FFF76AFD0320694655
:10E790000095087148718C71CC714C72087201201F
:10E7A0008872684600F0AEF9002000F04DFA0120B2
:10E7B00000F072F905B030BD2CF4051030F40510EE
:10E7C00034F4051038F4051038B5044604206946C1
:10E7D0000870032048708C706846FFF785FE21465C
:10E7E000102000F083F938BD014800787047000020
:10E7F000740400200149012008707047740400204F
:10E8000010B5FFF7A1FDFFF795FD002800D001200E
:10E8100010BD1CB504460121084600F0D1F8204681
:10E82000FFF792FD009000206946087188714871D9
:10E830006846FFF715FD1CBD10B50446202000F00A
:10E8400039F90128FAD0204600F00AFA10BD00007C
:10E850007FB51A4EB06840062AD5B06800258006FC
:10E86000002825DB18E00C1A142C00DD14241449B0
:10E87000A2B208180390E1B21248019500920291E9
:10E8800002881148012301883088F2F7E5F96428ED
:10E890000FD0B0880019B080B08871888842E2D368
:10E8A000B06840218843B060084975801020086036
:10E8B0007FBDB06820210843B0607FBD8404002084
:10E8C000B8040020920400209004002000E100E041
:10E8D0000020104903E00A5C401C1018C0B20A5C1A
:10E8E000002AF8D1C21C202A12D202220A54212264
:10E8F00008184270082181700021C170012180B286
:10E90000090441180920C006C160C168C903FCD4CC
:10E91000704700009804002002480168491C01600B
:10E9200070470000600400202248027A22480189D2
:10E930000020002A08D0022A37D0042A37D0082A1B
:10E9400001D104210843704709228A4300D12020C5
:10E9500011228A4301D14022104321228A4301D14E
:10E960008022104341228A4302D1FF220132104308
:10E9700081228A4302D1012252021043FF22023235
:10E980008A4302D10122920210430C4A8A4302D1E7
:10E990000122D202104305228A4301D110221043E2
:10E9A000C9438907CFD10821CCE70121CAE7022159
:10E9B000C8E700000000904000001048010400007B
:10E9C000044A0129116A02D0814311627047014350
:10E9D000FBE700000000904010B5FFF79DFF10BD61
:10E9E00010B52A49082088800321481FFFF7C0FD81
:10E9F0000321081FFFF7BCFD03210020FFF7B8FD2E
:10EA000003210120FFF7B4FD03210420FFF7B0FD2F
:10EA100003210520FFF7ACFD00210620FFF7A8FD2C
:10EA200003210720FFF7A4FD03210D20FFF7A0FD20
:10EA300003210E20FFF79CFD03210F20FFF798FD17
:10EA400003211120FFF794FD03211220FFF790FD11
:10EA500003211320FFF78CFD03211420FFF788FD0D
:10EA600003211520FFF784FD03211620FFF780FD09
:10EA700003211720FFF77CFD01210846FFF73CFB2F
:10EA800004490348086262B610BD0000000010404F
:10EA900066000E000000904005490028086B02D077
:10EAA0000122104301E04008400008637047000065
:10EAB000000030400549002801DA496800E0098B70
:10EAC000014201D001207047002070470000304013
:10EAD0000349898B014201D0012070470020704713
:10EAE0002000304010B5FFF709FE10BD044A002990
:10EAF000118B01D0014300E0814311837047000076
:10EB00002000304070B54B4D0446286B4A4A01073F
:10EB1000206801D4010100E0C1001046FEF72AFF81
:10EB200001464002020C434820308280D201891AFB
:10EB30000126C903F6038919090C3F2902D9491C8A
:10EB40008906890E0172027B23799F219B070A4067
:10EB50005B0E1A4302732A7F0A4061798907490EC6
:10EB60000A432A77017BA279F723D2071940120FB3
:10EB700011430173297FA2791940D207120F114363
:10EB80002977E179002943D002220229017B44D070
:10EB900011430173037B04210B4303732B7F134346
:10EBA0002B772A7F0A432A77296B0122520291434D
:10EBB000227AD207920D11432963296BFF22013279
:10EBC0009143227A9207D20F120211432963296BD3
:10EBD000012292039143627AD207520C11432963B6
:10EBE000296B627AB1439207D20FD2031143296392
:10EBF000027BA37AEF21DB070A40DB0E1A43027384
:10EC0000287F0840A17AC907C90E0843287770BD3C
:10EC1000027BFD210A40027308E011430173037B6C
:10EC2000FB210B4003732B7F13432B772A7F0A4072
:10EC3000B9E70000000030400000127A0148008867
:10EC4000C0B2704700003040044A117DC72340071E
:10EC50001940800E014311757047000020003040BC
:10EC6000C0050249C00D0880704700000000304018
:10EC7000704700000FB410B503A9044B044A029872
:10EC800000F078F810BC08BC04B0184769F2051011
:10EC900070040020FEB52848017A0125294301723D
:10ECA0002649002008600446FFF73EFE69460880BA
:10ECB0000888002803D1641CE4B2032CF4D308882C
:10ECC000202836D308880124400526D40846FFF7BB
:10ECD00051FB69464878897800010843122800D220
:10ECE000002417480068000705D4002C15D0012027
:10ECF000FFF7CAFC11E00926F6063069114F3968A2
:10ED00002830081A00020012002806DD002C02D06C
:10ED10000120FFF7B9FC386870600B480570FEF7FA
:10ED2000F8FDBFF34F8F0A490848C860BFF34F8F03
:10ED3000FEE70120FEBD000000002040140000207E
:10ED4000C0000020180000200C0000200400FA057C
:10ED500000ED00E002E008C8121F08C1002AFAD145
:10ED600070477047002001E001C1121F002AFBD14B
:10ED700070470000FFB591B00F460546002606E03B
:10ED800025280AD0149A139990476D1C761C287870
:10ED90000028F5D1304615B0F0BD002400940121C3
:10EDA000F34A029400E004436D1C2B780846203B94
:10EDB00098401042F7D128782A280ED002212878CE
:10EDC0000246303A092A15D8009A0A235A43303AA3
:10EDD00080180C436D1C0090F1E701CF00900028D3
:10EDE00005DA0120400304430098404200900220CD
:10EDF00004436D1C28782E2815D10420044368781C
:10EE00006D1C2A280AD101CF6D1C02900BE00299DB
:10EE10000A225143303940186D1C0290287801466F
:10EE200030390929F3D928786C2810D006DC4C2811
:10EE30001AD068280ED06A2817D104E0742813D09D
:10EE40007A2812D110E00120400504430CE0012192
:10EE5000090501E0032109050C436978814203D1CA
:10EE60000120000524186D1C6D1C287803906E2865
:10EE70001ED00CDC632831D004DC00288AD058284E
:10EE800011D1B2E064287BD069280CD178E07328D6
:10EE90002DD004DC6F2870D0702804D1A7E075282D
:10EEA0006CD078286BD0149A13999047761C62E046
:10EEB0006002400F022807D003280AD004283868CF
:10EEC0000AD006603F1D56E03868F11706604160C1
:10EED000F8E738680680F5E70670F3E738786946A2
:10EEE00008740020487404A80390012003E03868E7
:10EEF00003900020C0433F1D61070FD5002101E0B2
:10EF00000199491C029A0191914213DA8142F7DB7F
:10EF1000019A0399895C0029F2D10BE0002101E0FC
:10EF20000199491C01918142FADB019A0399895C9C
:10EF30000029F5D101990098139A401A00902146B2
:10EF4000149B00F03BF901998019461807E00398DB
:10EF500003990078491C0391149A139990470198DA
:10EF6000401E0190401CF2D12146149B139A009838
:10EF700000F014F986196D1C09E741E033E034E034
:10EF80000A200021049005916002410F022905D05A
:10EF900001CFC2179446032905D007E0FF1DFF08E3
:10EFA000FF0003CF06E000B2C2179446042902D145
:10EFB00040B2C1178C4600226146944506DA0A46E3
:10EFC0000021404291418C462D2102E0210504D5CB
:10EFD0002B216A461176012103E0E10701D02021AF
:10EFE000F7E7019154E00A200BE0102009E010201F
:10EFF000049000210420044308200591029003E0BE
:10F0000008200021059104906002410F022905D0DB
:10F0100001CF00229446032906D006E0FF1DFF0819
:10F02000FF0003CF8C4603E080B2042900D1C0B2B8
:10F030000021019121072BD50399702906D0049A4C
:10F040001021059B4A401A4305D00EE040216A4634
:10F050001176012108E06146014306D030216A465D
:10F0600011760399517602210191049A0821059B9A
:10F070004A401A430CD16146014301D1610707D5CB
:10F0800030216A461176012101910299491E0291AF
:10F090000399582904D037A103910FA90F910DE0CE
:10F0A00039A1F9E76146059B049AFEF78DFC039BA5
:10F0B0008C469B5C0F9A521E0F921370614601435F
:10F0C000F0D10F9807A9081A20300390600704D5E3
:10F0D000012000048443029801E00120029003997A
:10F0E000884201DD401A00E000204118029001989A
:10F0F00009180098401A0090E00306D42146149B9A
:10F10000139A009800F05AF886190020049008E03D
:10F1100006A9085C149A139990470498401C761C21
:10F12000049001998842F3DBE0030CD52146149B3F
:10F13000139A009800F042F8861904E0149A3020DF
:10F1400013999047761C0299481E02900029F5DC1D
:10F1500008E00F980F990078491C0F91149A1399A1
:10F160009047761C0399481E03900029F1DCFBE6CA
:10F17000092801003031323334353637383961628D
:10F180006364656600000000303132333435363751
:10F19000383941424344454600000000F8B5044672
:10F1A00000251E461746880404D405E03946202071
:10F1B000B0476D1C641EF9D52846F8BDFFB504465E
:10F1C000002581B01E46C80301D5302700E0202766
:10F1D000880404D505E038460399B0476D1C641EC9
:10F1E000F9D5284605B0F0BD7047704770477047A5
:10F1F0007047704770477047704770477047704757
:10F200007047704770477047704770477047704746
:10F2100010B508461946029AFEF70EFD10BD70475C
:10F220007047704770477047704770477047704726
:10F230007047000002488168202291438160704736
:10F24000840400207047704710B5032806D8507812
:10F250001178000208431321F1F748F910BD7047F7
:10F26000704770477047704710B5C0B2FFF7E4FAB7
:10F27000012010BD7047000010488168490849000E
:10F280008160816802221143816081680422914378
:10F29000816081682022914381608168D20091431E
:10F2A000816081685200914381608168520091437E
:10F2B000816081685200914381607047840400201E
:10F2C00070477047BFF34F8F03490248C860BFF3D0
:10F2D0004F8FFEE70400FA0500ED00E070470000E4
:10F2E000034801808168012211438160704700005A
:10F2F000840400207047704770477047704770471C
:10F300007047704770477047FFF76AFBFFF772FA64
:10F31000FEF7DAFE1448FFF7D7F91448FEF7D2FCDF
:10F32000010003D012A0FFF7A5FCFEE71DA11FA05E
:10F33000FFF7A0FCFEF7BAFD010003D029A0FFF7FC
:10F3400099FCFEE731A0FFF795FC0020FFF761FA7A
:10F35000E2F760FAFEF7BAFB0020FFF751FA002847
:10F36000F6D1FFF735F9F3E7F1E505103CF40510A8
:10F370004572726F7220696E20426C75654E5247FD
:10F380005F537461636B5F496E697469616C697A1C
:10F390006174696F6E2829203078253032780D0A23
:10F3A00000000000312E302E30000000426C7565E8
:10F3B0004E52472D3120424C452043686174205302
:10F3C0006572766572204170706C69636174696FF3
:10F3D0006E202876657273696F6E3A202573290D49
:10F3E0000A000000434841545F44657669636549FB
:10F3F0006E697428292D2D3E204661696C65642054
:10F400003078253032780D0A00000000424C45204B
:10F41000537461636B20496E697469616C697A65C4
:10F4200064200A000020000020000000000100000D
:10F4300001000000000800000100000000F00710BB
:10F44000000400000004000000F80710D8060020A7
:10F45000502200000E0003007C0001000410170081
:10F4600098040020FFFFFFFF640003004801000034
:10F4700010F50510080000200400000054ED0510F0
:10F4800014F505100C0000200400000054ED0510D8
:10F4900018F50510100000200400000054ED0510C0
:10F4A0001CF50510140000200400000054ED0510A8
:10F4B00020F50510180000200400000054ED051090
:10F4C00024F505101C0000200800000054ED051074
:10F4D0002CF50510300000200400000054ED05104C
:10F4E00030F50510C00000200C0200008EDA051077
:10F4F00038F50510600400203800000054ED0510B8
:10F5000070F50510980400204002000064ED05101D
:10F51000000000000000000000D8051000000000FE
:10F5200000000000000000000000000000000000DB
:10F5300001FF01FF011100000000000000000000B9
:10F5400000000000000000000000000000000000BB
:10F5500000000000000000000000000000000000AB
:10F560000000000002000000000000000000000099
:040000051005D961A8
:00000001FF
