:020000041004E6
:10000000006000202D980410098904101963041061
:10001000AA5555AA45554C420000000000000000BA
:10002000000000000000000000000000E9B3041020
:100030000000000000000000F5900410C5B5041099
:10004000612F04102189041000000000000000004E
:10005000FDB80410D1B304107D12041015B90410BA
:100060000000000000000000000000000000000090
:100070000000000095060410496304103163041069
:1000800000000000218404103D84041059840410F1
:10009000758404104D98041051890410F51704104C
:1000A0000000000000000000000000000000000050
:1000B0000000000000000000000000000000000040
:1000C00000F002F800F08EF80CA030C808382418B0
:1000D0002D18A246671EAB4654465D46AC4201D180
:1000E00000F080F87E460F3E0FCCB6460126334224
:1000F00000D0FB1AA246AB46334318470444010024
:10010000A4440100103A02D378C878C1FAD8520743
:1001100001D330C830C101D504680C6070470000BD
:100120000023002400250026103A01D378C1FBD813
:10013000520700D330C100D50B607047EFF3148233
:10014000EFF309811C4880F31488BFF36F8FF0B57B
:1001500043464C4655465E466746F8B4174CEFF3A7
:100160000883236006B4164C2068164C2060164C99
:100170002068164C2060164C2068164C2060164CE7
:10018000276800202060BFF34F8F30BF27600B4CE3
:10019000246884F3088882B003BCF8BC9846A14662
:1001A000AA46B346BC46F0BC04BC80F3098881F380
:1001B0001488BFF36F8F1047000000000800002074
:1001C00004ED00E0CC02002024ED00E0D00200208D
:1001D00000E200E0D4020020080020401FB51FBD4F
:1001E00010B510BD03488546FFF7F8FF11F012FE69
:1001F00000F016FA0060002003B4FFF7F1FF03BC23
:1002000000F016FA70B505460C46164602E00FCC13
:100210000FC5103E102EFAD2082E02D303CC03C510
:10022000083E042E07D301CC01C5361F03E0217818
:100230002970641C6D1C761EF9D270BD034610B582
:100240000B439B070FD1042A0DD308C810C9121FF6
:10025000A342F8D018BA21BA884201D9012010BDB2
:100260000020C04310BD002A03D0D30703D0521C86
:1002700007E0002010BD03780C78401C491C1B1BB4
:1002800007D103780C78401C491C1B1B01D1921E1E
:10029000F1D1184610BD10B5044600F002F8204612
:1002A00010BDF8B5042A2CD3830712D00B78491C53
:1002B0000370401C521E83070BD00B78491C03703F
:1002C000401C521E830704D00B78491C0370401C4D
:1002D000521E8B079B0F05D0C91ADF002023DE1B9F
:1002E00008C90AE0FFF78EFFF8BD1D4608C9FD40AA
:1002F0001C46B4402C4310C0121F042AF5D2F30848
:10030000C91A521EF0D40B78491C0370401C521EAF
:10031000EAD40B78491C0370401C012AE4D4097804
:100320000170F8BD431A70B593421BD2891880182A
:1003300004E0491E401E0B78521E03709307F8D14B
:1003400006E01039103878C9103978C01038103AE2
:10035000102AF6D203E0091F001F0B680360121F6A
:10036000F9D570BDFFF74EFF70BDF8B506461446CF
:100370000843800707D0751AA54219D20819102D15
:1003800013D2311907E03046FFF7CCFFF8BD401E0D
:10039000491E02780A70641EF9D2F8BD471B2A462E
:1003A0003946FFF77EFF641B3846A542F6D3011B92
:1003B00022463046FFF775FFF8BD134610B50446D8
:1003C000CAB219461002821810048218204600F0A2
:1003D0000FF8204610BD01E004C0091F0429FBD21C
:1003E0008B0701D50280801CC90700D002707047BE
:1003F00000290BD0C30702D00270401C491E0229FD
:1004000004D3830702D50280801C891EE3E7002203
:10041000EEE70022DFE70378C27819464378120638
:100420001B0219438378C0781B0419431143090246
:10043000090A000608437047002203098B4273D360
:10044000030A8B4258D3030B8B423CD3030C8B42E1
:1004500021D312E003460B437FD4002243088B4292
:1004600074D303098B425FD3030A8B4244D3030B3B
:100470008B4228D3030C8B420DD3FF22090212BA00
:10048000030C8B4202D31212090265D0030B8B427C
:1004900019D300E0090AC30B8B4201D3CB03C01A66
:1004A0005241830B8B4201D38B03C01A5241430B41
:1004B0008B4201D34B03C01A5241030B8B4201D331
:1004C0000B03C01A5241C30A8B4201D3CB02C01A9C
:1004D0005241830A8B4201D38B02C01A5241430A14
:1004E0008B4201D34B02C01A5241030A8B4201D303
:1004F0000B02C01A5241CDD2C3098B4201D3CB01AA
:10050000C01A524183098B4201D38B01C01A524158
:1005100043098B4201D34B01C01A524103098B425C
:1005200001D30B01C01A5241C3088B4201D3CB0047
:10053000C01A524183088B4201D38B00C01A52412A
:1005400043088B4201D34B00C01A5241411A00D2DA
:1005500001465241104670475DE0CA0F00D0494243
:10056000031000D34042534000229C4603098B42B3
:100570002DD3030A8B4212D3FC22890112BA030A3B
:100580008B420CD3890192118B4208D389019211BD
:100590008B4204D389013AD0921100E08909C30942
:1005A0008B4201D3CB01C01A524183098B4201D344
:1005B0008B01C01A524143098B4201D34B01C01A2F
:1005C000524103098B4201D30B01C01A5241C308A7
:1005D0008B4201D3CB00C01A524183088B4201D316
:1005E0008B00C01A5241D9D243088B4201D34B0031
:1005F000C01A5241411A00D20146634652415B1073
:10060000104601D34042002B00D549427047634653
:100610005B1000D3404201B50020C046C04602BD79
:1006200010B50446C046C0462046FFF7E5FD10BDA4
:1006300001491820ABBEFEE726000200704770B5E6
:100640008C180578401C6B075B0F01D10378401CA8
:100650002A1106D10278401C03E00678401C0E7077
:10066000491C5B1EF9D12B0705D40023521E0DD463
:100670000B70491CFAE70378401CCB1A921C03E06C
:100680001D780D70491C5B1C521EF9D5A142D8D3B0
:10069000002070BD034804490068884201D0406FC3
:1006A0000047FEE710000020000004107FB505465B
:1006B0009868012202739A681C4651739868022256
:1006C00002A90E3008F03CF9A16805200D74E08005
:1006D0007FBD000010B508480C460068074902229B
:1006E0004118A0685C310273A0680D3008F028F949
:1006F0000320E08010BD0000200300202C07000034
:1007000070B5064608881D460C46001D81B213468A
:100710000222304608F084FA21882B46891C218069
:10072000091D89B20222304608F07AFA2088801C1E
:10073000208070BDFEB500240E462746056845E0C2
:1007400028680290A968022230460D3108F0F8F8B6
:100750003088B84209D087B2384603F0AFFC014672
:1007600001AA384605F040FB019CA96802226846B0
:100770000F3108F0E5F8E888401F81B22220005DC3
:10078000002806D001280BD0002811D0012814D051
:100790001BE0E08B6A461288401E904206D307E0B9
:1007A000208C6A461288401E904206D20720FEBD69
:1007B000684600880818E18B03E06846008808183E
:1007C000218C884201D90D20FEBD029D002DB7D19C
:1007D00000203080FEBDFFB5C8880025401E83B0D4
:1007E0000E4687B2012427E0B068022208300119C2
:1007F0006846091D08F0A4F86846008803F05EFC0E
:1008000001001DD068460A8D0088824212D001AADC
:1008100005F0EAFA00280DD101992620405C400736
:1008200008D506986A00101802221C3108F088F8D2
:100830006D1CADB2A41CA4B2BC42D5D30C980580EB
:1008400007B0F0BDFFB5074683B0002000900D98BB
:1008500003F034FC069905460C310191002826D09E
:100860000837BD4223D0288D0E9988421FD80D9994
:10087000884213D30E99884210D8294602222A3181
:10088000019808F05DF810220C99069808F054F8C9
:10089000002809D0298D0E98814208D02E462C6A56
:1008A0002036B4423FD140E005980021018007B0D6
:1008B000F0BDA18B0D98814234D30E98814234D87B
:1008C000204620300290C078012808D02046083009
:1008D00010220C9908F030F8002808D022E02146B8
:1008E00002220831019808F02BF80698F0E70298E8
:1008F0008079400716D50098002801D1E08B009040
:10090000E18B814211D105980222008841000498B0
:10091000081821461C3108F013F80598059900883D
:10092000401C08802468B442C3D12D6899E70000B8
:1009300006480021026849204001101801724172E6
:1009400003218172C1720020704700002003002043
:1009500070B50D4D044601232868D9024018902631
:100960001A46406931460BF039FF010003D030468A
:100970004C600BF01FFF4920296840010918087AD4
:10098000401C087270BD00002003002010B5044612
:1009900000202082A074A168A161616120602046CE
:1009A00006F02CFF452801D0412010BDA08803216E
:1009B0000EF01CFE04460FF0EFFD002813D072B6B7
:1009C0000A48012201680920000209184878A2405B
:1009D0001043487062B6002011F0B6FE002802D025
:1009E00000200DF023FC002010BD0000200300209B
:1009F00070B5C17C0E4D4906490EC17404460123F1
:100A00002868D902401890260022406931460BF030
:100A1000E5FE010003D030464C600BF0CBFE4920D0
:100A2000296840010918487A401C487270BD0000CE
:100A300020030020F8B516460D46074600240AF0AC
:100A400011FA002806D032462946384600F068FEE2
:100A5000044604E020356879002802D00E242046A0
:100A6000F8BD2879C10701D1012E09D0810701D431
:100A7000022E03D04007F2D4042EF0D10324EEE777
:100A80000224ECE788681E2202730120C88000203F
:100A9000704710B58B6818241C738B685A73022238
:100AA000CA802122016992011143016119218173D8
:100AB000002010BDFFB581B00646684680890C9FB6
:100AC0000C46002837D06946098A884233D8708896
:100AD000C01FB8422FD3FD1DAAB20021204608F046
:100AE00023FB002802D0642005B0F0BDA0680621D9
:100AF0000173A068022203A90D3007F021FFA0684E
:100B0000022204A90F3007F01BFFA06802220AA9E5
:100B1000113007F015FF3A460B2120460B9B08F0D9
:100B20007FF8E58021213069890108433061072081
:100B3000B0730020D8E74220D6E77FB50546684667
:100B400000890C4600281ED06946898988421AD837
:100B5000A06804210173A068022202A90D3007F0E9
:100B6000EFFEA068022203A90F3007F0E9FE05207E
:100B7000E080212128698901084328610520A873A4
:100B8000002004B070BD4220FBE7FFB581B00646EF
:100B9000684680890B9F0D4600282DD07088401F25
:100BA000B84229D37C1DA2B20021284608F0BCFA25
:100BB000002802D0642005B0F0BDA868162101739A
:100BC000A868022203A90D3007F0BAFEA868022225
:100BD00004A90F3007F0B4FE3A46092128460A9BC3
:100BE00008F01EF8EC80212130698901084330614A
:100BF0001720B0730020DEE74220DCE77FB5054612
:100C0000684600890C4600281AD0A0680C210173A0
:100C1000A068022202A90D3007F092FEA06802220D
:100C200003A90F3007F08CFE0520E0802121286900
:100C30008901084328610D20A873002004B070BD0D
:100C40004220FBE77FB50546684600890C9E0C46AE
:100C5000002816D069468989884212D8A0681021D8
:100C60000173A068022202A90D3007F069FEA06896
:100C7000022203A90F3007F063FE012E04D0022EDA
:100C80000AD0422004B070BDA068022208A9113029
:100C900007F056FE072006E008AB10220921204687
:100CA00007F0BEFF1520E080212128698901084353
:100CB00028611120A8730020E4E77FB50546684647
:100CC00000890C9E0C46002816D069468989884206
:100CD00012D8A06808210173A068022202A90D3071
:100CE00007F02EFEA068022203A90F3007F028FEAD
:100CF000012E04D0022E0AD0422004B070BDA0689C
:100D0000022208A9113007F01BFE072006E008ABFD
:100D100010220921204607F083FF1520E0802121C1
:100D200028698901084328610920A8730020E4E7A5
:100D3000FFB507465804040C788881B0401E0E4663
:100D4000A0421FD3042C1DD3651CAAB2002130463B
:100D500008F0EAF9002802D0642005B0F0BDB068C0
:100D60000E210173224605213046039B07F058FFF0
:100D7000F58021203969800101430F203961B87362
:100D80000020EAE74220E8E737B5054668460089D3
:100D90000C46002813D0A0680A210173A068022223
:100DA00002A90D3007F0CCFD0320E0802121286945
:100DB0008901084328610B20A87300203EBD422012
:100DC0003EBDFFB5064681B00C4688680A9DD2211B
:100DD0000173A0681F46022203A90D3007F0B0FD81
:100DE0003B462A460721204607F01AFFED1CE58006
:100DF000308821460005000D0AF046FA002005B0B3
:100E0000F0BDFFB581B08C680A9E522020738868BF
:100E10000D461F46022203A90D3007F091FD3B4607
:100E200032460721284607F0FBFEF61CEE80002024
:100E300005B0F0BDFFB581B00646684680890A9FBF
:100E40000D46002827D07088C01EB84223D3FC1C52
:100E5000A2B20021284608F067F9002802D06420D9
:100E600005B0F0BDA86812210173A868022203A989
:100E70000D3007F065FD3A4607212846049B07F030
:100E8000CFFEEC80212130698901084330611320B5
:100E9000B0730020E4E74220E2E77EB50446164640
:100EA0000D46684605F066F868460378237040787A
:100EB00028706846807830707EBD000070B50AF0FA
:100EC000EFFB1D4C01252068ED024119097900292D
:100ED00009D1A0300079C00727D00EF0A7FD00F09F
:100EE0007BFC00F0FDFD00F0FFF82068014640317A
:100EF0000A78C9798A4317D13E21095C002913D1A8
:100F00000E490A8812070FD50922D2061269497ABA
:100F1000836A4019006FC900801A00025918001234
:100F2000814201DA0DF0D6F870BD01F0C3FD03F087
:100F300081FA09F081FCD2E720030020C0000020E4
:100F400010B5837F0122002492024168082B03D947
:100F50004224914202D310E0914201D242240CE09B
:100F600001463422064807F0EBFC00F07FF8002829
:100F700001DA482401E00AF0F3FE204610BD00002B
:100F8000100400203EB5174D15482968827F084699
:100F9000A0310A7300246030047644768476E1221E
:100FA000C2768022027702224277302008704C708D
:100FB00002AA01A96846FFF770FF68460078A222DE
:100FC00001016846007A891C0002014368460079E5
:100FD0000003014328681152A03004713EBD000097
:100FE000100400202003002070B50AF03FFB06F03B
:100FF000F9F907F087FDFFF79BFC05F0A9FB184CFA
:1010000018492068184D4018811009202A680002EC
:1010100010184167616889088167A1688908C167FC
:1010200009F0ECFB0F202968C001228B081882818F
:10103000628BC281A28BC280628C028122462032E6
:10104000127882723B22520100208918087501F043
:1010500073FB05F0FDF80DF02FFC00F0C7FD70BD2F
:10106000100400200000FCEF2003002070B50025D4
:10107000ED430EF00BFA01282FD00023184903226C
:10108000888BFF24401E10438A7F513462438218AC
:10109000088B282460431218488B302460431218B0
:1010A0000846203040782C24604310180D4A181848
:1010B00084184869A0420ED11320C00184420AD985
:1010C0000D690EF0E3F9C1B2284600F0CFFB00F045
:1010D000FFFC401B251A284670BDFF23B533CDE722
:1010E0001004002051190000F8B52C4F3C68206E08
:1010F0005C34401C002814D0002529480023C07B04
:1011000000283ED00926F6062648002D1CD00021D6
:101110000A460B464169521C994204D1002902D06B
:1011200004E00125E9E7204B9A42F2D321600069EF
:1011300060603069A1680002090E000A09060143D7
:10114000A16000F08DF81DE03169A2680902090A6A
:10115000150E08D0018BC90712D0416921600069C2
:101160006060E37210E0881A00027D2300121B0306
:10117000984205DD100E00060843A06000F070F8EC
:10118000F8BD6360002DFBD003CC11F083FAFA2088
:1011900010F030FE39688862F8BD0000200300209E
:1011A000300400200000104888130000F8B5294DD5
:1011B000002029680A4640321378D279934347D1F8
:1011C0004A6E120E44D13E22525C002A40D1431E88
:1011D00021488D6A467A1A460024F600AD19092680
:1011E000F606376900887D1907070120002F06DA07
:1011F000C302CB181C6F631B1B021B1228D40727CA
:101200003F02C919496ACF0103D54A1B12021212C3
:101210001ED401252D07002B06DA002A0ADA756094
:101220000E48856003200AE0112000060443746024
:10123000002A03DB294308460AF030F90220054959
:10124000096840314A78002A02D000204870032003
:10125000F8BD000020030020C0000020400000482E
:101260000449002008610448012100686030C17110
:101270007047000000001048200300200348044984
:101280000068884201D0806D0047FEE71000002012
:101290000000041070B5234A002110680446403055
:1012A0004176017609231B02E01841700F25362094
:1012B000055508461468E418E46C21541468E418D1
:1012C000E56C0446303429551468E418E56C04468E
:1012D000603429551468E418E56C04469034401CC9
:1012E000C0B229552D28E5D31268D318D86C58629E
:1012F000044630341C629030D8610B4814464834A0
:1013000001800921417105238371C17103724281FA
:1013100000F00CF8FF2020706070A070E0701F20BB
:10132000207170BD20030020C000002010B50648C9
:1013300001680648406A002803D020220EF03EF8DB
:1013400010BD0020087010BD2003002010040020F4
:10135000F8B5069C1F4615460646002C13D0A0681B
:1013600002220D3007F0ECFAE81E82B23B4607215C
:10137000204607F055FCE580A068012E05D01D2110
:1013800001730020F8BD4720F8BD1B21F8E770B5B8
:1013900015460646FFF74EFB0446082D0BD1052CDB
:1013A00009D1304609F05EFD002804D000894004D0
:1013B000800F00D00024204670BD2423184204D0A2
:1013C000C81F092803D82032D1710020704742205D
:1013D00070470000F1B5FFB001248BB060020590AA
:1013E0000027CC4807970168CB48C94D08180390DF
:1013F0008A980AAA0005000D05A909F0FFF80690D1
:10140000002872D104260AA805994218203AD27FF2
:101410000B2A23D00026002004900AA8811902225A
:1014200001A8029107F08CFA6846818809AB08AAE6
:10143000039804F0BBFC012817D002287ED0684630
:101440008088854200D30546844200D92046044660
:1014500002988078012872D013363CE1491E761E2E
:1014600036040591360CCFD1D5E708980090002FAF
:1014700066D1009902222831029807F05DFA00280F
:101480001ED100982030017B02988078814217D1CC
:10149000012808D10098029902220830C91C07F0DF
:1014A0004BFA002815D002988078022808D10098BD
:1014B000029910220830C91C07F03EFA002808D013
:1014C0000098008DA84200D80546A04200D22046D0
:1014D000044602990AA88978012907D0133605998C
:1014E000B6B28E4204D3012707E006E1761DF6E787
:1014F0008119022201A807F023FA03990098083104
:101500008E462FE084466946026A8B8820300DE0C3
:10151000918B994203D3012F7ED199427CD9A94264
:1015200000D80D46A14200D30C4612688242EFD18A
:101530000498002804D16046006802E015E0BFE08E
:101540008AE070450ED0018D994203D3012F09D155
:10155000994207D98D4200D30D468C4200D80C46E3
:10156000012F59D17045CDD1BAE008980090002FD5
:1015700072D1009902221C31029807F0DDF900288F
:101580001ED100982030C17802988078814217D10E
:10159000012808D10098029902220830C91C07F0DE
:1015A000CBF900281AD002988078022808D1009838
:1015B000029910220830C91C07F0BEF900280DD08E
:1015C0000098808BA84200D80546A04200D2204651
:1015D000044602988078012826D003E0029880789B
:1015E000012805D013360798B6B201281ED021E095
:1015F00000984A490089884216D18A9800F0B0FDC7
:101600000146009800F08CFC0099098C4843009931
:1016100089694018022200E038E00299491D07F06C
:101620008FF901200790D4E7761DDCE7B61C002077
:10163000B6B207900598864201D3012705E00AA8B3
:101640008119022201A807F07BF9039A0099083258
:1016500009980968944630E01AE086466A469388FD
:1016600020300DE08A8B9A4203D3012F0ED19A428B
:101670000CD9AA4200D81546A24200D314460968E4
:101680008142EFD1049800282AD102E00120049081
:1016900026E07046006860450FD0028D016A9A42CC
:1016A00003D3012F09D19A4207D9954200D3154699
:1016B000944200D81446012FE8D16045CDD10FE007
:1016C0000298C078022805D102980079292801D112
:1016D000B61CB6B2761D0598B6B2864200D3012775
:1016E0000598811B042902D3864200D293E6049810
:1016F0000028FBD1A54203D906987FB00CB0F0BDFD
:10170000224629468A9804F0BFFE0690F5E70000BD
:10171000FFFF0000200300202C070000022900002A
:1017200070B515460C46064609F084FB20346179F5
:10173000012D09D00A0702D54207920F0FD0CA0621
:1017400025D5020709D522E0CA0702D04207920F29
:1017500005D08A0705D5020703D4082070BD0520EF
:1017600070BD490707D5C00709D0E179304609F0B7
:10177000D5FA5F2805D02079C00704D005E00F20F6
:1017800070BD0C2070BD022070BD002070BD8906A8
:1017900007D5C007F3D0E179304609F0BFFA5F28DA
:1017A000EFD02079810701D4022D07D0410701D461
:1017B000042D03D00007E8D4082DE6D1032070BD26
:1017C00000B500F0CDFC002805D08522016992010A
:1017D000114200D0002000BD10B507F087FC07F0D3
:1017E000B8F80DF053FE012801D100F011F800F017
:1017F00019F810BD044805490068884202D08030BD
:10180000C0690047FEE7000010000020000004103F
:10181000704700207047002101E000BF491C814251
:10182000FBD37047F8B5104E30682030C57D002DD1
:1018300019D0002409273F0210E0E9070BD0C01996
:10184000016B5820604308184030417D204605F068
:10185000FDFF002807D06D08641CE4B23068AC219D
:10186000095CA142E9D8F8BD20030020F3B581B09E
:101870001322D201012101A807F03BF8914C042268
:101880002060432101A807F034F801252168ED020A
:10189000491988600422432101A807F02AF8216829
:1018A00004224919C860FF21843101A807F021F8FA
:1018B00021680C224919844D0861A97F01A80B31C8
:1018C00007F017F809262168360289194865A97FAB
:1018D000202201A807F00DF8216810228919486418
:1018E000A97F01A807F005F82168282289198864D2
:1018F000052101A806F0FDFF21683022891908653D
:10190000052101A806F0F5FF2168FF228919C864A6
:101910000132012101A806F0ECFF21685822891943
:10192000C865A97F01A806F0E4FF21682022891973
:101930000863A97F01A806F0DCFF216889194863C4
:10194000AA8B012101A806F0D4FF0F272168FF010F
:10195000C9190860298B282201A806F0CAFF0721AF
:101960002268090251188867698B302201A806F0A5
:10197000C0FF0721226809025118C8670C22012103
:1019800001A806F0B6FF21680C228919C86201215E
:1019900001A806F0AEFF216828228919C96A88606B
:1019A000284620300090417801A806F0A2FF216867
:1019B00004228919C96A896888600098417801A859
:1019C000491C06F096FF216810228919C96A8968A6
:1019D0004860A97F01A806F08CFF21680222C9197E
:1019E000C867A97F01A806F084FF21680222C919EF
:1019F0004865A97F01A806F07CFF21680222C91969
:101A00008865A97F01A806F074FF21680222C91920
:101A1000C865A97F01A806F06CFF21680122C919D9
:101A20000866A97F01A8491C06F063FF21681022FF
:101A3000C91988670B2101A806F05BFF07212268FE
:101A40000902511888610422802101A806F051FF83
:101A5000216889198863029ADC204243012101A888
:101A6000443206F046FF21688919C863029AD820DB
:101A70004243012101A82C3206F03BFF2168F022ED
:101A800089190864012101A806F033FF0F4C7C225C
:101A90002060A97F01A806F02CFF21680822C867F2
:101AA000032101A806F025FF216828228031086063
:101AB000012101A806F01DFF2168803148600198CE
:101AC000FEBD00002003002010040020240300209D
:101AD000704710B5C001000C00F0E8F9002010BDFF
:101AE000FEB572B63F4D0823286801464030C279E2
:101AF0001A43C27162B6002001276C46FF028200C1
:101B00005218D219526952884300401CC0B2E252A6
:101B10000328F4D372B6C81900210668016062B6C2
:101B2000F00702D000200EF02DF8B00702D50120FA
:101B30000EF028F8700702D502200EF023F83007C7
:101B400002D503200EF01EF8002623E00D281AD23D
:101B5000211D254A8000125820469047002812D0A7
:101B600072B62868F7224030C1791140C17162B65F
:101B700030E03A2807D21C49231D8000E8390A5872
:101B8000194620469047029829684018C0194069B4
:101B90002188018071006846415AB00002902A688D
:101BA0008018C019406902889208920014180288AF
:101BB00008348A420ED0A27891070BD09107890F82
:101BC000012901D104460834A0788008C006E078D5
:101BD000CFD5BBE7761CF6B2032EDBD30DF0DEFECD
:101BE000FEBD0000200300209044051070B50DF0EC
:101BF000EFFE104C01252068ED024019806840215D
:101C00000DF0B6FC216849194861C86840210DF003
:101C1000AFFC2168491988610869FF2181310DF005
:101C2000A7FC216808224B19D8610021184606F04C
:101C30008BFE70BD20030020FEB5064629481446E1
:101C40000068294A8518C888032806D02346002240
:101C500002210420FEF72AFD42E08968022268463C
:101C60000D3106F06DFE326990052ED4684601886C
:101C7000172903D35C20405B172801D2172002E00C
:101C8000814200D2084670800120400202430220B7
:101C900032610190134837210068490141183788A3
:101CA000097B7688012349070FD5D90208304018EF
:101CB0002422406902210AF091FD002805D0878086
:101CC000C680014601980AF075FDA06803260673D8
:101CD000A068294602225C310D3006F031FEE68014
:101CE0000020FEBD200300202C070000F7B590B0B7
:101CF00000206A460D9090826A4A6B4B1268044637
:101D0000D218CB88022B08D0002218210420129B65
:101D1000FEF7CCFC002013B0F0BD8B6800205E7B8A
:101D20000A900B9088883032019209900027019820
:101D30000BF050FE054620E028680890A988099815
:101D4000814219D1A968022207A80D3106F0F8FDD9
:101D5000002F01D16846878B6846808B87420BD164
:101D6000294601980BF083FE002028600A9800287D
:101D700011D00B9805600B95089D002DDCD1002F2C
:101D8000D4D1129819218068017301211298012E73
:101D9000C18002D081E00A95EDE702A90AA8FEF70A
:101DA000C9FC002879D069460A891821129BFEF7E0
:101DB0007DFC002671E081680546022202A80D31F3
:101DC00006F0BEFD012E66D16846008902F076F964
:101DD000014668460EAA008904F006F80E9C109988
:101DE000204600F09DF80D9055E02F68012E3FD160
:101DF000002F06D0B968022205A80D3106F0A0FD1B
:101E000002E0002069468882A968022204A80F31F6
:101E100006F096FDE8880D99401F80B20090208C56
:101E2000A269484369461018098A009A4318092193
:101E3000284606F0FDFD2220005D012804D16846F9
:101E4000018A00980818E08368460189808A8142E7
:101E50000ED0208C0D99A2694843101800210190E2
:101E600000911098E38B0188A28B02200BF038F8C8
:101E70000A9908680A90002008600A99002900D190
:101E80000B900121284606F077FE69460889898A69
:101E9000884202D13D46002DA7D10A9800288AD158
:101EA00039E70000200300202C07000000B5084996
:101EB0000968084A914209D14006010C06483F22B0
:101EC000028181611121018000F022F800BD000033
:101ED00014000020CCBCECFC0000104000B5094A06
:101EE0001268094B9A420BD1084A3F23138180089C
:101EF00090610648403001603320108000F008F8FF
:101F000000BD000014000020CCBCECFC0000104020
:101F10000248018AC907FCD0704700000000104049
:101F200030B5024623239B5C0020012B1AD1128975
:101F30000D4B9A4216D10D4A092312681B02D31881
:101F4000A0325B6B127B0AE045010C885D5B2405C7
:101F50002D05240D2D0DAC4204D0401CC0B2824290
:101F6000F2D8002030BD000002290000200300202C
:101F7000F7B578480F460068774988B04418F88864
:101F8000072804D20022062104200A9B2AE0B9680F
:101F9000022268460D3106F0D3FCB968022201A87E
:101FA0000F3106F0CDFCB968022204A8113106F009
:101FB000C7FCF888C01F80B20390684602888088FA
:101FC00082420CD8002A0AD00898002142880A9838
:101FD00007F0A3F8002808D045200BB0F0BD06217B
:101FE00001200A9BFEF762FBABE00A98072180689C
:101FF000083401730121684601810594008802F0CC
:102000005DF805007CD086E06846008A0522D20291
:10201000904202D0521C904226D1684600888142EC
:1020200078D329460B2208313846039B06F09EFDE3
:1020300069466A8D098A8A426CD10399022901D0C6
:10204000102967D1002865D12A462846296A2832F6
:102050002030814202D06B6A1C3300E0134602A993
:102060000A98FEF74DFB55E02E462C6A2036B44206
:102070004ED14FE06946A08B0988884247D3694614
:102080008988884257D82320005D01283FD1204607
:102090000899FFF745FF218CA269414351180B2293
:1020A0003846039B06F062FD0690089801220088DE
:1020B00021460005000DFEF7BDFC01466A46208959
:1020C000128A904223D1002921D1E28B03998A42BE
:1020D0001DD1069900291AD108996A4649881289A2
:1020E000891A042927D322461C491C32884208D168
:1020F0002068B04205D00089884202D02468F7E702
:1021000019E023461C3302A90A98FEF7F9FA24685D
:10211000B442AFD12D68059885420CD06846298D10
:102120008088814207D808986A4640881289801AB8
:10213000042800D368E768460089012803D90A9972
:10214000C880002049E76846028806210A200A9BC9
:1021500048E70000200300202C07000003280000AF
:1021600010B50D4900050B680921090259184A6B81
:102170000021000DA0331B7B0AE04C01145B2405F9
:10218000240D844202D14801801810BD491CC9B2F7
:102190008B42F2D8002010BD20030020FFB589B08B
:1021A000002405460794D0881646052804D000224E
:1021B000042108460C9B20E0B168022208A80D31DA
:1021C00006F0BEFBB168022268460F3106F0B8FB8C
:1021D0006846028C008882420CD8002A0AD00A98ED
:1021E000002142880C9806F098FF002808D045206E
:1021F0000DB0F0BD042101200C9BFEF757FAB9E0A9
:102200006846008C01F05AFF060076D00835049528
:102210000498864272D06946308D098C884230D34A
:102220006946098888422CD8002C0AD101210791DF
:102230000C9805218068022401730C980799806826
:1022400041730A984088001B042857D30798012837
:1022500054D1201D81B23346283302220C9806F057
:10226000DFFCA01D81B233462A330222A41C0C9845
:1022700006F0D6FC6946A41C308D0988A4B28842B9
:1022800074D03746356A2037BD42C1D060E0694618
:10229000A88B098C88425AD369460988884265D838
:1022A000002C36D02320415D0798814260D10A98E6
:1022B0004088001B042802D30799012904D0122862
:1022C00056D30798022853D1201D81B22B461C33C8
:1022D00002220C9806F0A4FCA41C0798A4B20128C2
:1022E0000DD0201D81B22B46083310220C9806F029
:1022F00097FC2046103084B229E03DE036E0201DF6
:1023000081B22B46083302220C9806F089FCA01CEF
:10231000F1E72320415D07910C9805218068022296
:1023200001730C980799806841730C98294680685E
:102330001C310E3006F004FB079901290CD02B4606
:102340000833102208210C9806F06AFC14242D682A
:10235000BD429CD136685BE70C9829468068022212
:102360000831103006F0ECFA0624F0E7002C03D018
:102370000C98C48000203BE76846028C04210A20A8
:102380000C9B3AE70649092209681202891880085D
:10239000496B400108180188002900D100207047CE
:1023A0002003002070B50C460B4E81000B483268AC
:1023B0000D1801232032D37721462846FFF78EFDE2
:1023C00028680021844201D1084600E0FB203268E1
:1023D0002032D17770BD00002003002000000410DF
:1023E00070B50D46040006D005F0FAF8E000001BB9
:1023F000C6B200240FE0422070BD285D012803D042
:10240000002801D01F2070BD281905F0B1F8002860
:10241000F9D1E41DE4B2B442EFD3002070BD000056
:1024200038B5184A14682246BA32AE34A378DD07AC
:1024300001D001290AD05B070CD501290AD02179E6
:1024400049070BD5E17A002905D007E0E078802123
:102450000843E07038BD0121E172508020794106C7
:10246000090FF7D0782108406946087000204870AD
:102470006A46022142200AF04BFB2079872108405E
:10248000207138BD2003002070B592B0064620228E
:1024900021A101A8FDF7B6FE202109A8FDF7B9FF8B
:1024A0000A216846017000242546694601A804F007
:1024B000C5FE6846027801A909A806F041FA01A8FC
:1024C00024E0015D491CC9B2914223D803195B780D
:1024D000B34214D16B461A78521A6118C9B2411826
:1024E000D2B209A81A70401906F02AFA6B46187879
:1024F0002818C1B209A805F0FDF912B070BD521A32
:102500006B461A7062186918D4B2CDB269460A785F
:10251000002AD6D11F20F0E702FF010201040302C6
:102520008FFC000000000000000000000000000020
:10253000000000000000000070470000FFB50C46DE
:1025400078A103C995B001910090002108A80173FA
:102550000321C90268464186012108A8734E01740F
:1025600035681746AE3503F0FBFE002808D17049E8
:102570003068401803F0BAFCA878002802D0462042
:1025800019B0F0BD0BA8159900F015FC0028F7D183
:10259000072010A90871012C05D0022C0AD0002CAC
:1025A0000ED04220ECE708A8017B1020014308A8C8
:1025B000017305E011A90BA800F053FC0028DFD13E
:1025C00010A8027901230CA9284600F0D9FF0028A1
:1025D0007ED102222946189806F0B2F92988684669
:1025E00081811521490201820784012686734E21CB
:1025F00008A881700024C47006710721417186719A
:1026000003A902A800F072FD002861D1022202A9EC
:102610001E9806F095F9082F02D26846478502E019
:1026200008206946488569460C850B4628880AAA11
:10263000098903F051F800286DD13E4968460182AE
:102640000227078408A8847103A902A800F04EFDA0
:10265000002860D1022202A91F9806F071F968468D
:102660000470694644704F850B4628880AAA098978
:1026700003F032F800284ED108A8007BC00723D011
:102680002C496846C91C01820821018408A887706A
:10269000047103A902A800F029FD00283BD1FF2105
:1026A0006846C1718171C17081704170017044715F
:1026B00004716946082048850B4628880AAA0989BA
:1026C00003F00AF8002826D108A8007B800600E065
:1026D00021E022D52988684681811649A5310182E9
:1026E0000684867308A88770C4700471072141713D
:1026F000847103A902A800F0F9FC00280BD16946F7
:102700000E700C854E850B4628880AAA098902F0AE
:10271000E3FF002801D0472032E708A8007BA8701B
:1027200000202DE7626C75656E7267212003002022
:10273000EF060000012A0000034800210068AE30C7
:10274000C1708170704700002003002070B50D4BF0
:102750001C68AE342379DD0612D45B0710D533280C
:102760000ED1E07A02280BD10420107000205070A6
:10277000C9B202200AF0CCF92079FB21084020716F
:1027800070BD00002003002038B502461748012420
:102790000068AE30022A1FD0052A03D0072A07D0CE
:1027A0000B2A20D1084609794088FFF739FE1AE044
:1027B00000790024020600D50124820703D1C20655
:1027C00001D480060FD5084600216A46117069467B
:1027D00009F03AFB044606E08178490703D5017900
:1027E000FB2211400171204638BD0000200300206B
:1027F00010B509480468AE34E07880070BD5002096
:1028000004F08AFB02200AF0FDF8E0780121084379
:10281000FD210840E07010BD200300200FB410B56A
:10282000079C01282DD1684680891749884210D11C
:1028300003A80FC800F03AFB00281DD107F0F4FDF3
:10284000FA281ED001281CD92078F32108402070D6
:1028500017E00D49491C884208D0C91E884205D09E
:10286000491C884202D0C91C88420AD103AC0FCC53
:1028700000F01CFB002800D0632010BC08BC04B092
:1028800018470020F9E70000022A0000FFB50746BC
:1028900073480D4604688FB0AE34A1781E46C80652
:1028A00002D5E078C0067DD4880607D5E07880069A
:1028B000800F03D0022F01D0002E73D08806800F26
:1028C00006D0022F08D0032F06D0002E6AD003E0D6
:1028D000012F01D0002FF8D1880603D4002D01D09C
:1028E000012D5FD1002E06D130200140384604F082
:1028F000D3F9002856D1119900200870A1788906D3
:102900008A0F7DD00CA908A804F078FC07900DA9C7
:102910000AA804F01BFD06900798002802D006982C
:10292000002801D1012E58D1022F04A807D003F0AE
:1029300083FA002E3CD00798002803D012E008F05C
:102940000EFDF6E7464F47483B68062208A91818CF
:1029500005F0F2FF0028386808D04030417E490871
:10296000490041760698002805D014E04030417EA9
:1029700001221143F5E73A4F3A483B6806220AA97B
:10298000181805F0D9FF002838680CD04030417E77
:10299000FD22114041760798002809D006980028AA
:1029A00006D01AE043E04030417E02221143F1E7B5
:1029B0002B48062203682B4804A9181805F0C0FF0D
:1029C000052069460873002E02D1084608F042FF30
:1029D00025480290684608F0F1FEA078800611D5DF
:1029E0001198032101702079C10603D5002D01D073
:1029F000022D1CD1800605D5012D03D0032D00E04A
:102A000018E014D1A078C00627D5119901200870CC
:102A10002079C10601D5002D09D1810601D5012DEE
:102A200005D1000619D5002D17D0012D15D0422053
:102A300013B0F0BD012F01D1002E03D0890F314317
:102A400009D00AE00648062203680648611D1818E6
:102A500005F076FF0120119908700020E8E70000DA
:102A600020030020EF060000A0BB0D003EB50CF0D7
:102A700099FD04460CF022FE082C01D1082813D041
:102A80000A480B49006806224118684605F058FFBD
:102A900068464079400601D5022000E0032001236A
:102AA00002AA0021FFF7F2FE3EBD00002003002035
:102AB000EF0600001FB50E480468AE34E07801064A
:102AC00012D5A178C9070CD0800708D50420694623
:102AD0000873684608F0BEFE022009F093FF00204C
:102AE000E0704006400EE07000F0BAF91FBD000033
:102AF0002003002010B50C46417994B0490610D54A
:102B00006A46012107F02EFC002802D0702014B084
:102B100010BD0FA906222046023105F011FF00204A
:102B2000F5E74220F3E7FFB58DB01898169E179D84
:102B300019991C461746002803D0FFF751FC0028BE
:102B400013D100200690089009900590049001216F
:102B500007900B95039002900A96019100943946D4
:102B600006200E9B0D9A09F08DFA11B0F0BD70B5DC
:102B70008CB00024109D119E0A940B94049405942B
:102B80000394069407940993089200900194029488
:102B900033462A46042009F075FA0CB070BDF0B532
:102BA0008DB00C4616A9E0C90021089109910A913F
:102BB0000B911599049105A9E0C112A962C900936E
:102BC000019113460146039602952246012009F021
:102BD00059FA0DB0F0BD0000F0B591B00C461AA93D
:102BE000E0C90021089109910A910B91199904916A
:102BF00005A9E0C116A962C90093019113460146D7
:102C0000039602952246022009F03CFA040007D1FF
:102C1000042008A9087704480E900CA808F0CEFDFF
:102C2000204611B0F0BD000020BF020000B5002218
:102C30008DB00A9205920B92009108920992069229
:102C400007920146049201920292134603920320D6
:102C500009F018FA0DB000BD002000B58DB00A9043
:102C60000B900890099005900690079004900090B2
:102C700001900290034602460146039009F002FAD1
:102C80000DB000BD10B514468CB000220B92069218
:102C90000A92089209920592079204920292019375
:102CA00003920B46024600940021052009F0EAF940
:102CB0000CB010BD0949B22209681423525CBA3124
:102CC0001A4208D0498800050905090D000D814206
:102CD00001D1012070470020704700002003002030
:102CE00010B504F0FBF810BDF3B591B00446032015
:102CF00069460870002501A804F0A0FA224609A838
:102D0000129905F01DFE214634E0002001AB5B194D
:102D10009C4614E0129B1B5C934239D8934201D12C
:102D2000002B35D1129ED21A36186746521E76787D
:102D30007F78D2B2BE4213D0401C1818C0B2A04255
:102D4000E8D301AF7A5D4E1C90191F282DD809AB2E
:102D500058186146521C05F0F3FD785D8019C1B228
:102D600001A86B46405D1A786D1C121A521E40195C
:102D70001A70C5B26846007822460028C5D110E016
:102D8000129B1B5C934203D8934204D1002B02D0C8
:102D9000422013B0F0BDD21A521E401C1818D2B2F5
:102DA000C0B2A042ECD31F2901D94120F1E709A804
:102DB00004F0A0FDEDE70A07920F01D04220704712
:102DC0008A07FBD002788907890F0A430270002026
:102DD00070470000F0B52148092100680902401839
:102DE000456F99B000206946087004460C271426E8
:102DF00004F0F6FB10A802301790694628460FF041
:102E00005BFB6846641C0078E4B2FE2820D101A96F
:102E100028460FF03FFB68464079C007179804D05A
:102E2000FDF7F9FA0002401C02E0FDF7F4FA000297
:102E3000159011A80130FDF7EEFA0002000A169075
:102E400015A804F095FB002802D0472019B0F0BD6A
:102E5000AD19BC42D1D30020F8E7000020030020C8
:102E6000704742207047000010B50446022000F071
:102E70005DF80D4800210268092000021018A032F8
:102E8000436B107B05E04A019A5A002A04D0491C82
:102E9000C9B28842F7D810BD48011C52C018026957
:102EA00004210A43026110BD200300201FB582B037
:102EB000002403F005F8694602F0A6FF009A684670
:102EC000116A0089203209E023235B5C012B04D1C5
:102ED0000B89834201D1641CE4B209689142F3D1A9
:102EE000204606B010BD000010B50446014604207F
:102EF00003F064FD002808D0044805490068401824
:102F000021463C300AF096FD432010BD20030020EE
:102F10002C07000004490A683B21490151180A7D29
:102F200002430A75704700002003002004490A6824
:102F30003B21490151180A7D02430A757047000080
:102F40002003002000B51138C0B2FFF71BFA00289B
:102F500004D00122016952051143016100BD000046
:102F6000034804490068884201D0006C0047FEE72E
:102F7000100000200000041003480068AE30807884
:102F80008006800F7047000020030020F3B597B043
:102F90000D8848880590081D1DC80DAE1DC68C8A79
:102FA000CE8A087E1390C86920310190087800907D
:102FB0004878049088780390C87802900F7901F0DF
:102FC0005FFD002817D10120400284425FD8B4423F
:102FD0005DD8002F01D1B44259D114A9284602F07E
:102FE00013FF002806D115AA1499059802F0FCFEDB
:102FF000002802D0602019B0F0BD149D11A9284608
:10300000183005F0D3F910A88088002810D0284681
:1030100012A9203005F0CAF910A8838800892A8DEA
:103020001818696A10188A8B904203D16120E2E770
:103030004820E0E715982C4B02899A4227D1232299
:10304000125C012A23D100680068169013980128A9
:103050001FD16846808E29221202801A030008F0D0
:103060007CFF0604180404070A18022C0FD110E094
:10307000072C0CD10DE0042C09D3E00707D1012F58
:1030800007D1A64203D3042E01D3F00701D042207A
:10309000B1E702980B90039B049A0A930992009857
:1030A000019A0C9708900696059407920DA81DC8E2
:1030B000019002A81CC013980B4600902A4616994E
:1030C000179800F0B1F9002895D168460649808E1E
:1030D000FF31884205D01798018800200A4603F086
:1030E000D3F9002087E7000003280000F3B5A5B05E
:1030F00008881A9088780C4611901022091D13A890
:10310000FDF7CFF8A08A1090A17D68460172E07D9E
:103110000F90207E2090677EA07E1F9000200646A4
:103120000146129020A801810F20BB4C2390BB497F
:1031300020684018199001F0A3FC00280BD1012150
:103140001098490288425FD821A91A9802F05CFEC3
:10315000002802D0602027B0F0BD2198179002F01F
:10316000AFFE1A9988420CD102A8019016980090DF
:1031700013AD0ECD1198FFF751FB002801D063204D
:10318000E9E76846017A8806800F05D00120129091
:103190002068A030007B4600C80703D01298401C6E
:1031A000B61C1290080603D51298401CB61C12904B
:1031B00017980DA918301D9005F0F8F86846129C74
:1031C000808EA41CA04237D317980EA920300190FE
:1031D00005F0ECF86846018F00290DD01798179A72
:1031E0006B46406A9B8E128D5918808B5118081AB5
:1031F000A04201D26120AEE7179884691198256832
:10320000012803D0022803D04220A4E7052000E0D3
:103210001320E0832A4639460F98FEF7CEF842285D
:1032200099D0199FE28B4037788B398B411A1098CF
:1032300010188019814201DA48208CE70EA9019804
:1032400005F0B4F86846008F0028179802D0406A4D
:10325000808B00E0008D2599401C08802598012175
:103260000088A083259802220088401CA8836C480F
:103270002081204620301790C1700021817081711B
:103280001998398B406D40186946A061097A017020
:10329000A06929461C31401C05F052FB11980128F9
:1032A000A0697DD0102213A9C01C05F049FB284657
:1032B000102213A9083005F043FB388B13303883F4
:1032C0002E4620361198F0701098E8831F98B07041
:1032D00010982084109828841998398B406D4018D4
:1032E000A8610021109A05F02FFB398B109808185F
:1032F000388317990120087117990020487130719F
:103300006846007A810701D5012131710107022742
:10331000002902DA317939433171410703D5317916
:10332000042211433171400603D530790821084346
:1033300030710F9870712098B07121461D9805F07A
:103340005EF82146019805F03BF829461D9805F0E6
:1033500056F82946019805F033F81298002841D014
:1033600068461A998181A18BC18107844784012411
:1033700008A8047122A80A9008A8847323994173AD
:103380000F993820014008A801730721C173002557
:1033900005746846007AC00708D02248694600E0F4
:1033A0002BE0088203A924A8FFF7F0FD6846007A05
:1033B0008006800F07D01B486946401E088203A97B
:1033C00024A8FFF7E3FD6846007A00060AD5292104
:1033D00009026846018208A84473057303A924A85A
:1033E000FFF7D4FD259801881298401C081882B276
:1033F000002003F049F80020ADE6022213A9C01C0A
:1034000005F09EFA2846022213A9083005F098FA22
:10341000388B401D53E70000200300202C070000DC
:103420000328000003290000FFB55248524A0068F3
:1034300087B08218069210AA109B0126169F9288C8
:10344000012B04D14D4B9A4201D1A030067B069D41
:1034500034464035688B2B8B7C43C31A0998203047
:103460000390A34222DA48200BB0F0BD2320405C39
:10347000012819D108896C46208098420CD03F4C15
:10348000641EA04208D0641CA04205D0641CA04267
:1034900002D0A41CA04207D1384CFF3CA04201D06E
:1034A000904201D16220DFE7096801E029231B0275
:1034B00003988142DAD109981B99846918982246A9
:1034C000FDF77BFF4228CFD01C98012804D1159826
:1034D000874201D24220C7E71598E083204620307A
:1034E0001C990590817027840A98808B401CA083CA
:1034F0001098012814D02046102211A9083005F098
:103500001FFA05991098C8700698298B406D4018CD
:10351000A061298B384670430818288300250FE0E6
:1035200011A80FC808340FC4183CEAE72846A1695F
:1035300078430818159A179905F002FA6D1CEDB238
:10354000B542F3D3059918984871059919980871EF
:1035500005991A98887109982146183004F04FFF90
:103560002146039804F02CFF0798A18B01800020CE
:103570007AE70000200300202C0700000229000049
:10358000FFB58FB014460E78102205A8891CFCF7F1
:1035900088FE4F484F490068451801F071FA00282D
:1035A0001ED1002C57D0012E09D16846808A4A4985
:1035B000884204D12846A968083081424BD1284668
:1035C000103029690390814209D00AA9284604F0E5
:1035D000EDFE6846018D601E0D90814202D24820AA
:1035E00013B0F0BD284608300CA9049004F0DEFEAC
:1035F0006846008E002814D0EF680AA938461830B3
:1036000004F0D4FE384620300CA904F0CFFE684602
:10361000398D008D09186846008E401C081887B245
:1036200000E0012701200004C01BA04201D261205C
:10363000D6E72C69286801901298012802D0022848
:1036400003D008E00520C00200E024486085012E78
:1036500003D0022E05D04220C2E7204608300222C5
:1036600002E020460830102205A905F069F920463D
:1036700031462030064601730F9821460780278582
:10368000039804F0BCFE2146049804F099FE2746F6
:103690001837E7616662A76126620D9884B20BE075
:1036A0002846019904F0ABFE3846019904F088FEE3
:1036B0002868641EA4B20190002CF1D10F980188F3
:1036C0000D98081882B2002002F0DEFE002087E785
:1036D000200300202C070000011800000128000032
:1036E00010B5012101F0A0FD10BD0000F7B50646A0
:1036F00036480F460068364982B044183046FEF717
:103700002FFD050060D02046243000900AF0A8F973
:10371000002859D12869000356D500980AF05AF9B3
:1037200004464FE0A088B0424BD120223146002011
:1037300005F0C6F9060018D0A068002F017B427B77
:1037400015D033460498FCF7B1FF00200122296907
:10375000D2049143296100282AD0692802D030463A
:10376000FFF7C2FB002005B0F0BD6420FBE70A298B
:1037700006D00C290AD00E290ED0082912D023E039
:1037800032462146284606F035FCDFE73246214620
:10379000284606F069F8D9E732462146284606F061
:1037A0005FFBD3E732462146284606F0EFF9CDE726
:1037B000214600980AF05BF90121204605F0DCF96A
:1037C000CDE72468002CADD14120CCE720030020B8
:1037D0002C070000F0B56B4989B00A686A49068871
:1037E000571841886A4611800179079141790491FF
:1037F000C1880191806803903046FEF7B1FC040057
:103800003ED03846243006900AF02AF9002830D1FC
:10381000206980032DD506980AF0DCF8054626E0DD
:10382000A8880005000DB04220D1A8680223007BC3
:1038300002900320059005226946284605F096F976
:10384000002813D10298162801D105200590E98897
:103850000598091A0198814208D1059A034628461D
:10386000121D039905F082F900280AD02D68002D59
:10387000D6D13846183007460AF0F2F800283ED074
:1038800063E020223146002005F01AF9060011D02D
:1038900001212069490488432061012707993F06D7
:1038A00000290AD068460288334602990498FCF73A
:1038B000FDFE1BE0642009B0F0BD38432061029892
:1038C000324612282946204602D005F035FC01E098
:1038D00008F0A8F9002809D0692805D02069B84364
:1038E00020613046FFF700FB0020E4E729460698F8
:1038F0000AF0BDF80121284605F03EF9EEE72069FF
:10390000400322D538460AF065F805461BE0A88832
:103910000005000DB04215D1A868007B522801D0E7
:10392000D2280FD1022305226946284605F01EF948
:10393000002807D107222846019B039905F016F9B4
:10394000002804D02D68002DE1D14120B3E707986D
:10395000002808D1012120698906084320612946F1
:10396000204608F0C9F801212069890488432061B4
:10397000294638460AF07BF80121284605F0FCF874
:10398000B2E70000200300202C07000038B50D46E8
:103990001446694602F038FA002817D1009B186ACD
:1039A000203311E0818BA9420DD101462031CA7824
:1039B000012A06D10089064A904202D14C710020AA
:1039C00038BD462038BD00689842EBD1412038BD53
:1039D00002290000FEB58C68CD88267B012E01D01F
:1039E0000020FEBD4126052D01D01E7019E0247C6B
:1039F0000A2C00D01E70002A0DD089680522684666
:103A00000C3104F09DFF6D1E00AAA9B232200132D4
:103A1000FEF79CFE05E000880A460146022009F0F8
:103A20003BFB4120FEBD70B50546FEF799FB040047
:103A300019D0208AC00416D520222946002005F07E
:103A40003FF805000DD001462046FDF71BF828463B
:103A5000FFF74AFA01212069090388432061002009
:103A600070BD642070BD462070BD0000F0B587B009
:103A70000C46054601F004F800280DD104A928469B
:103A800002F0C2F9002806D106AA2046049902F0E5
:103A9000ABF9002802D0602007B0F0BD069C1648A4
:103AA0002189814203D12321095D012901D04220CE
:103AB000F2E7049DA18B2668203501910498A78B1D
:103AC0002146203004F09BFC04982146183004F075
:103AD00077FC3446218908483668814203D1232087
:103AE000005D012801D0AC42E8D13A46002001999E
:103AF00002F0CAFC0020CFE7032800007CB50C468A
:103B0000054600F0BDFF00280DD16946284602F0A9
:103B10007BF9002806D101AA2046009902F064F939
:103B2000002801D060207CBD01990D4A088990428F
:103B300003D12320405C012801D042207CBD0098A5
:103B40008C8B203004F05BFC00980199183004F055
:103B500037FC22461146002002F096FC00207CBD76
:103B600002280000FEB505462748284900680024C1
:103B7000461800F085FF002808D1012D07D06946BE
:103B8000284602F041F9002803D06020FEBD6220E3
:103B9000FEBD009D288D0190AF6918350BE000989F
:103BA0003946183004F02BFC3946304604F008FC46
:103BB000641C2F68E4B2AF42F1D1009D2F6A20351A
:103BC0000BE000983946203004F019FC39463046A5
:103BD00004F0F6FB641C2F68E4B2AF42F1D130462A
:103BE0000830009904F00BFC30461030009904F0C6
:103BF000E7FB641C0199E0B2081882B2002002F0D1
:103C000043FC0020FEBD0000200300202C07000024
:103C100010B5102101F008FB10BD10B5082101F00E
:103C200003FB10BDF7B586B0174606464625FDF7DF
:103C3000C7FD040025D020223146002004F040FFBB
:103C400006001DD0104869460880012004903B46BC
:103C500031462046079AFDF730F8050004D00021D0
:103C6000304604F089FF0CE0A78101212069490357
:103C7000084320610548A0613046FFF735F900E0B0
:103C80006425284609B0F0BD032800001B3C041041
:103C900070B586B006464625FDF792FD040025D096
:103CA00020223146002004F00BFF06001DD0052025
:103CB000C002694608800120024604900D4B31463F
:103CC0002046FCF7BFFF050004D00021304604F079
:103CD00053FF0BE001212069490308432061064896
:103CE000A0613046FFF700F900E06425284606B0E1
:103CF00070BD0000FFFF0000E1360410FFB589B081
:103D0000074646261D781022991C05A8FCF7C9FA1B
:103D1000012D04D0022D02D042200DB0F0BD384656
:103D2000FDF74EFD040037D020223946002004F074
:103D3000C7FE07002FD0194869460880012004906B
:103D4000394620460B9B0A9AFCF7B7FF060004D0C1
:103D50000021384604F010FF1EE00B98A081A068F7
:103D6000012D0FD0102205A904F0EAFD25710121D3
:103D700020694903084320610948A0613846FFF7DC
:103D8000B3F809E01022074904F0DAFDA068022226
:103D900005A90C30E8E764263046BEE7032800009A
:103DA000113C0410ED440510F7B5174606464625AC
:103DB000FDF706FD040022D020223146002004F049
:103DC0007FFE06001AD001983B46401C82B2314665
:103DD0002046FCF7B2FE050004D00021304604F076
:103DE000CBFE0CE0A7810121206949030843206133
:103DF0000448A0613046FFF777F800E064252846C4
:103E0000FEBD0000093E041010B5202101F00CFA9F
:103E100010BD0000F3B58BB00D784626102206A821
:103E2000891CFCF73EFA012D04D0022D04D042205B
:103E30000DB0F0BD022700E010270B98FDF7C0FC85
:103E4000040030D0202200200B9904F039FE0490A9
:103E5000002827D0052106A8C90200910190134B24
:103E60000122029720460499FCF724FE060004D0A4
:103E70000021049804F080FE15E0A068012D0FD009
:103E8000102206A904F05CFD257101212069490377
:103E9000084320610648A0610498FFF725F802E076
:103EA0000222EEE764263046C2E70000FFFF000072
:103EB000B53E041010B5022101F0B6F910BD0000A6
:103EC00070B506464625FDF77BFC04001CD0208A11
:103ED000800519D420223146002004F0F1FD0600AF
:103EE00011D0014600252046FCF7F4FBA1212069F2
:103EF0008901084320610548A0610320A073304672
:103F0000FEF7F2FF00E06425284670BD113F041063
:103F1000FEB504462D482E490068E26946189068AF
:103F200000250146007BD3880831012834D0032BBB
:103F300001D0412537E002226846491D04F000FD0A
:103F4000216988050BD440366846B28B00888242CE
:103F500000D210466080012040020143216102200E
:103F600001901A483721006849014118097B2788C8
:103F700066880123490716D5D90208304018242243
:103F80004069022108F02AFC01000CD08F80CE800D
:103F9000019808F00FFC06E04125052B03D121888C
:103FA000022009F079F80121E06904F0E5FD002024
:103FB000E0610120216940038143216121882A4673
:103FC000022009F085F90020FEBD0000200300203A
:103FD0002C0700000EB500220092019220230292CD
:103FE00000F0C6F80EBD3EB50B46048841888288B5
:103FF000C588007A0293019000950223204600F0C4
:10400000B7F83EBD10B5042101F00EF910BD000057
:10401000F7B586B0174606464625FDF7D1FB0400E6
:1040200025D020223146002004F04AFD06001DD094
:10403000104869460880012004903B4631462046DE
:10404000079AFCF73AFE050004D00021304604F040
:1040500093FD0CE0A78101212069490308432061F9
:104060000548A0613046FEF73FFF00E06425284682
:1040700009B0F0BD02280000054004100EB5002371
:10408000009301930293012300F072F80EBD00002B
:10409000024608480849006841188868083103E06A
:1040A000038D934202D200688842F9D1884200D140
:1040B00000207047200300202C070000034610B5A5
:1040C0000E480F49006841188868083103E0148DD4
:1040D0009C4203D8104602688A42F8D18A420CD129
:1040E000018D994209D20146026A20318A4203D0E9
:1040F000416A898B994200D2002010BD2003002024
:104100002C070000024610B50B4812050168092073
:1041100000020818436B0020120DA031097B07E054
:1041200044011C5B2405240D944203D0401CC0B202
:104130008142F5D810BD000020030020F7B50546E8
:104140001746019809F046FC2E050446360D0CE092
:10415000A0882568B04207D12146019809F087FC64
:104160003946204604F008FD2C46002CF0D1FEBD57
:10417000FFB58BB01D464624159F0B98FDF720FB1D
:1041800006006DD0202200200B9904F099FC0590C8
:10419000002864D0E80706D030460D9B0C9A05999C
:1041A000FCF7CBFC2BE0A8070DD51498BAB281B26E
:1041B000169802920091019030460D9B0C9A059939
:1041C000FCF778FC1BE02807800F1DD01498002F07
:1041D000C4B217D01022394606A8FCF762F8680767
:1041E00006AD04940FCD6D460FC50D9B0C9A059935
:1041F000304602D5FCF726FD01E0FCF75EFD040029
:104200001DD027E0472425E0E8060AD5149800973A
:1042100080B2019030460D9B0C9A0599FCF7B5FCD5
:10422000EDE7A80616D50C98C0B2012805D00022EB
:1042300030460599FCF72DFCE1E70122F8E7012162
:1042400030694903084330610748B0610598FEF7BB
:104250004BFE05E00021059804F08EFC00E064248C
:1042600020460FB0F0BD000059480410F3B5524885
:104270000C460068514993B040180F90258861881A
:1042800068468185A188018621461022083107A849
:10429000FCF707F8A77900F0F3FB00280DD1694679
:1042A000888D098E884239D8002837D010A9284631
:1042B00001F0AAFD002802D0602015B0F0BD109DCD
:1042C00003A928461830059004F070F868468089E4
:1042D000002831D028462030AC690DA9049004F0A4
:1042E00065F86846818E364A002913D06E46B68935
:1042F0002B8D7618686A9B19868BB34201D1612099
:10430000DBE70389934203D12030C078012801D034
:104310006220D2E7012F03D0022F03D04220CCE746
:10432000062000E00420E0830F9E4036708B338B24
:10433000C01AE38B984201DA4820BEE7288D491C59
:104340004018139925460880A0832281012020353A
:10435000E8700F98318B406D022240180BA9A061C4
:1043600004F0EEFAA06902220CA9801C04F0E8FA1D
:10437000308B001D3083012F08D1A069022207A9CC
:10438000001D04F0DDFA308B801C30830020687142
:1043900001212971A870A8712146059804F02FF811
:1043A0002146049804F00CF81398018800200A466E
:1043B00002F06AF8002080E7200300202C070000AC
:1043C00002280000F7B50F4606464625FDF7F8F926
:1043D00004001FD020223146002004F071FB0600AB
:1043E00017D001463B462046029AFCF7A1FC050087
:1043F00004D00021304604F0BFFB0BE0012120690E
:104400004903084320610448A0613046FEF76CFD73
:1044100000E064252846FEBD4F4804103EB51488D0
:104420005288002501930092029510232246FFF73F
:104430009FFE3EBDF0B58BB00020634902906348FB
:104440000A68141872B610464030C57902231D431D
:10445000C57162B625464035287AC0077DD009204F
:10446000000210180026476B49E071017A5A002AB1
:1044700043D0C919069109694A021ED48A0226D579
:10448000022104910699012309880905090D039168
:10449000372149014118097B89070ED5D902083017
:1044A000401823224069022108F098F9010004D045
:1044B000039A8A80049808F07DF906980088009095
:1044C000069800F05FFA009806F0A6FC15E0480791
:1044D00013D5069800880005000D06F02FFC002873
:1044E00005D1069800880005000DFCF773FF0699BA
:1044F00004200969814306980161761CF6B23248AE
:10450000AC210068095CB142AFD804F0CDFF204671
:104510002430064609F0A4FA012802D0012004F054
:10452000C7FE2046183009F09BFA012802D000206F
:1045300004F0BEFE3C34204609F092FA01280FD068
:1045400002A9204609F0B5FA0420029902F036FAD1
:104550000028F0D02046029900E032E009F057FA36
:10456000287A00062DD5304609F07AFA012828D19C
:10457000002004F079FAA98B23314909491CC9B2FA
:10458000FBF75AFF00281CD00F4D04462868012372
:10459000D90208304018422638224069314608F0D6
:1045A0001DF901000DD000228A80CC80304608F031
:1045B00001F93B212A68490151180A7D8020824374
:1045C0000A750BB0F0BD0000200300202C0700008E
:1045D000F8B50F4606464625FDF7F2F804001ED052
:1045E00020223146002004F06BFA060016D0014666
:1045F0003A462046FCF7C8FB050004D000213046AF
:1046000004F0BAFA0BE00121206949030843206154
:104610000448A0613046FEF767FC00E064252846A8
:10462000F8BD000089460410F0B587B015460E4667
:1046300007461C781022991C03A8FBF732FE0020C5
:1046400003A90191029004232A460094314638467A
:10465000FFF78EFD07B0F0BDF0B587B015460E46EA
:1046600007461C781022991C03A8FBF71AFE0020AD
:1046700003A90191029008232A4600943146384646
:10468000FFF776FD07B0F0BD10B5412100F060FFE7
:1046900010BD0000FFB589B0074646251E781022E0
:1046A000991C05A8FBF7FDFD012E04D0022E02D0B7
:1046B00042200DB0F0BD3846FDF782F8040024D04A
:1046C00020223946002004F0FBF907001CD005AD7C
:1046D00004960FCD6D460FC5394620460B9B0A9AAE
:1046E000FCF7EBFA050004D00021384604F044FA48
:1046F0000BE0012120694903084320610448A061BF
:104700003846FEF7F1FB00E064252846D1E70000BB
:104710001547041010B5502100F01AFF10BD10B558
:10472000FFF756FF10BD10B5FFF752FF10BD000098
:10473000F0B5224B224C1B681E193B249C46640199
:104740001B191B7DDB0702D0B368083631E06220FD
:10475000F0BD1C8D84420BD12C20C05C012805D0FB
:1047600010200880083313600020F0BD0220F8E715
:10477000844220D21D4620351C6A17E0A78B874251
:1047800011D123231B5D0120012B06D123890D4D5F
:10479000AB4202D16046A030007BE38B43430B80E9
:1047A000A0691060E0E7874205D82468AC42E5D1F3
:1047B0001B68B342CDD14120F0BD00002003002092
:1047C0002C07000002290000F7B5174606464625CB
:1047D000FCF7F6FF040028D020223146002004F028
:1047E0006FF9060020D001463B462046019AFCF7AF
:1047F00005FA050004D00021304604F0BDF914E0AC
:10480000A06801990BF0BAFDA0683946801C0BF036
:10481000B5FD012021694003014305482161A061E4
:104820003046FEF761FB00E064252846FEBD00002F
:104830003548041010B5422100F08AFE10BD10B5B5
:10484000FFF7C2FF10BD10B5FFF7BEFF10BD10B5DA
:10485000442100F07DFE10BDFEB5C7690446B8686E
:10486000007B0D2838D00CDC072823D004DC01287D
:1048700014D0052878D117E0092821D00B2873D14E
:1048800024E013283AD004DC0F282BD011286BD158
:104890002EE017285ED0192866D161E021883A46BB
:1048A000022008F0F9FB5FE021883A46022007F079
:1048B00057FD59E021883A46022007F005FD53E0F4
:1048C00021883A46022007F0B1FE4DE021883A46A1
:1048D000022007F033FF47E021883A46022007F024
:1048E000EDFD41E021883A46022007F0E5FE3BE07D
:1048F00021883A46022007F03BFE35E00220019075
:1049000020880090B8790321401EC6B2F01C0843ED
:10491000401C83081A483721006849014118497B27
:10492000490721D502218D02083040192C22406907
:1049300007F054FF050017D00098A880AE713246EA
:1049400005213846EB1D04F073F82946019807F05D
:1049500031FF09E021883A46022007F055FD03E0C7
:104960002188022007F06CFC01212069490388435B
:1049700020610121384604F0FFF80020E061FEBD0F
:1049800020030020F0B504463B483C49006885B050
:104990004518218A890419D502210491372149013A
:1049A0004118897B412627880123C9070ED0D902E7
:1049B0000830401831224069022107F00FFF010042
:1049C00004D08F808E71049807F0F4FE2946208869
:1049D00001221831FFF7B2FB29462088012230312D
:1049E000FFF7ACFB2946208801222431FFF7A6FB04
:1049F0002946208800223C31FFF7A0FB20880005D3
:104A0000000DFFF77FFB85002946113168460173D1
:104A100006F020FF294612316846017306F01AFF9E
:104A2000294613316846017306F014FF68461435B1
:104A3000057306F00FFF208800F03EFB208801057B
:104A40000D48090D0268252080011018028B914243
:104A500001D100210183E069002802D0012104F086
:104A60008BF8202200212046A56803F06DFF172057
:104A7000A560608005B0F0BD200300202C07000079
:104A800010B50B480B49006844184034207AC00721
:104A900009D0002003F0E8FF217A890701D500281A
:104AA00003D0002010BD472010BD642010BD0000C1
:104AB000200300202C070000F0B55FA099B000682B
:104AC0005E4915905E4A086884180922120282180D
:104AD000526B2546403514922A7AD20702D06220C2
:104AE00019B0F0BDAA8B01235B029A4201D9AB83B6
:104AF00003E0172A01D21722AA83149AA030139236
:104B0000067B0DE0761EF6B2139871010F18B86897
:104B10000F9038462022002103F016FF0F98B8604E
:104B2000002EEFD120460830E0606460A060246071
:104B30000830139060612061FF220021083008F0E6
:104B40005EFF2046FF220021243008F058FF204657
:104B5000AA7F0021303008F052FF2046FF220021BA
:104B60003C3008F04CFF00222A7210461721334BCC
:104B700005E0149E4701BE19401C7180C0B21E683A
:104B8000A036367B8642F4D8002028832F8C688C90
:104B90000026149008E02820E16C70430918204694
:104BA00003F00EFC761CB6B2BE42F4D3002608E039
:104BB0003020216D70430918139803F001FC761C16
:104BC000B6B214988642F3D30120FEF7AFF9012460
:104BD000684604701B4941802346042269460CA89C
:104BE000FEF7CEFC002822D16846018E818216494C
:104BF0000183042606858475202108A8817200247B
:104C0000C472047307214173847305A90DA8FEF7CC
:104C10006DFA00280BD1684604874687818E15AB54
:104C20000EAA008E00F058FD002800D158E70020A1
:104C30002872472054E700000000FFFF20030020F7
:104C40002C07000001180000052A0000F8B50446F2
:104C500083480E460068834947184820C05DC00756
:104C60006FD0B088FDF77CFA0546012C02D0002CED
:104C700068D0F3E0002D04D02869410703D5452012
:104C8000F8BD0121C7E0B268F188147B0029F0D09B
:104C900062060AD568888842F3D3D22C01D0522C00
:104CA000EFD138463146183048E0A106890E1E295A
:104CB00049D81E2C20D101071ED508218843286120
:104CC0002988012006F024FC0121304603F054FF1E
:104CD000634801230068D9020830401842242D8817
:104CE00039224069214607F079FD010003D08D800B
:104CF000204607F05FFDB1E0E1070BD01D2C1AD074
:104D00001B2C18D0410533D4012189020843EE61E0
:104D10002861A3E0C00606D52B46022203214220CB
:104D200008F0A8FCADE72988002006F0DFFB296920
:104D300010200143296138463146243008F07AFEBC
:104D40008CE015E016E029882022002003F0B8FE50
:104D500005000DD00121304603F00EFF2B46002246
:104D600021460620FBF7A2FC2846FEF7BDF875E0B9
:104D70004120F8BDB068047B1D2C3CD01B2C43D0D7
:104D80000021304603F0F8FE002D67D0032C46D0FA
:104D9000052C44D0072C42D0092C40D00B2C3ED0FF
:104DA0000D2C3CD00F2C3AD0112C38D0132C36D0EF
:104DB000172C34D0192C32D0012C30D0022C35D005
:104DC000042C33D0062C31D0082C2FD00A2C2DD017
:104DD0000C2C2BD00E2C29D0102C27D0122C25D007
:104DE000162C23D0182C21D0522C1FD0D22C1DD001
:104DF0001E2C2FD032E0002D03D02988012006F090
:104E000075FB3146022001E03146012006F020FB0F
:104E1000002823D00021304603F0AEFE1EE02969B1
:104E20001020814329612988002015E0286940214C
:104E300088432861010511D5FF210131084328610C
:104E40002988022006F052FB01202969C002814313
:104E5000296103E02988032006F05AFB0020F8BDF1
:104E6000200300202C07000010B5104A104B1268D8
:104E7000D2184032127AD20706D002280AD005286A
:104E800004D00B2810D101E0412010BD4888FDF767
:104E9000EBFF09E04888FDF763F9002804D0012200
:104EA0000169920511430161002010BD200300201B
:104EB0002C07000038B50D461446694600F0A4FFE3
:104EC000002834D10099086A20312EE0828BAA4252
:104ED0002AD101462031CA78012A20D10089154AF9
:104EE00090421AD0521C904217D0134A904214D0CC
:104EF000521E904211D0104AA13290420DD00E4A5B
:104F0000C432904209D00D4A904206D0521C9042C1
:104F100003D029221202904201D1462038BD200739
:104F2000000F0871002038BD00688842CED14120B2
:104F300038BD000004290000052A000002280000F6
:104F4000F3B585B002884488818801913C4FC688BA
:104F500005893B21386849014018007DC00767D0AA
:104F600001204002854215D86946104600F04CFFEA
:104F7000002862D102AA2046009900F035FF0028DF
:104F80005BD102992F480A89824203D12322525CC5
:104F9000012A02D0422007B0F0BD09680C680099D0
:104FA000203148E02289824203D12322125D012A66
:104FB00043D0A38B019A93423CD1204620300390EA
:104FC0008178002903D1E08BAA19904205D20129EA
:104FD0002ED1208CA91988422AD301200190039850
:104FE000C07801280AD117492089FF31884205D1AC
:104FF0003868A030007B002701900AE0002738467F
:10500000A169684308182A46069903F099FC7F1C99
:10501000FFB201988742F2D303988078012805D126
:10502000002E02D0208CE08300E0E5830020B2E770
:105030004720B0E724688C42B4D16020ABE7000081
:105040002003002003280000FFB581B01546064666
:105050004624FDF785F8070026D0304605F002FF0C
:10506000002821D03005000D05F0E4FEC0071BD15B
:105070000298002803D078880F38A84201D2422431
:1050800012E028460F3081B2304603F00BFD0600D7
:105090000DD0014600953846049B029AFBF791FE1D
:1050A00004463046FDF720FF204605B0F0BD6424DD
:1050B0008020FDF72FFFF7E7F1B5FFB085B047205F
:1050C00001900020694608805348544900684718F9
:1050D0008498FDF745F80290002874D0B968083725
:1050E0004FE0684600880D4604AC20186B4602224B
:1050F00028310EF080FE68460088294620186B464D
:1051000001222C310EF077FE2E462036307B694688
:105110000128098804A809D040186B4610222946A6
:1051200008310EF068FE01902C6A27E040186B46AB
:105130000222F4E76946098804A8401821466B4614
:1051400002221C310EF057FE6946098804A8401857
:1051500021466B46012223310EF04DFE2320005DD7
:1051600069460128098804A830D0401821466B46BA
:10517000102208310EF03FFE01902468B442D9D1CC
:105180002968B942ADD1019800281CD16846008831
:1051900081070AD0224A011D11406A4611800A1A6D
:1051A00004A908180B2103F0CFFB0298008805F032
:1051B000C5FD002807D1849869460005000D04AAA2
:1051C000098805F053F97FB006B0F0BD40182146BC
:1051D0006B46022208310EF00EFE01902089114923
:1051E0008842CAD120460299FCF79AFE4000A16984
:1051F00003906A460918128804A880186B46022298
:105200000EF0F9FD0190A16903980222081800210F
:1052100003F09AFBB1E70000200300202C070000F8
:10522000FCFF000002290000F0B593B00E460446D2
:105230000020694608760190E0690790002827D091
:10524000C788002F7DD0B006800F03D02088FDF7DF
:1052500031FD019006AB2046019A0799FEF7BAFB93
:10526000412861D0B81E80B2009007988068457BC5
:10527000002D56D0F006F107039000290FD0022F21
:105280000DD329460098FBF7D7F8002903D006E094
:10529000412013B0F0BD062D17D0142D15D0B00746
:1052A00008D5052F06D30321B8078907C84201D1C5
:1052B000022048E070070ED5022F0CD32946009833
:1052C000FBF7BAF8002902D005E001203BE0082DE9
:1052D0000DD0062D0BD00398800F0ED0022F0CD3CB
:1052E00029460098FBF7A8F8002902D005E0042021
:1052F00029E0072D08D0152D06D0B00611D5012DB7
:1053000004D0022D04D00CE008201CE0042500E0AD
:105310001225022F05D929460098FBF78DF80029A0
:1053200010D041206946087601212069490388434D
:105330002061019800287DD006AA01213120FDF7C7
:1053400005FAF6E01020810706D57D49B80340181C
:10535000070CB800C01C0EE0C0060098294604D512
:10536000401CFBF769F887B202E0FBF765F80746D7
:10537000781E6843801D81B205AB0222079803F0B6
:1053800057FBF0064ED56946A089898A884202D922
:10539000206941065BD4002041E0072D0AD0684314
:1053A0000B3082B21023A168079803F0DFFB0028BE
:1053B00015D031E01022634908A803F0C1FA029821
:1053C0000BABC100081A0B3081B20222079803F020
:1053D0002FFB102208A8A16803F0AEFAE7E70198B6
:1053E00000280ED002980CAB6843801D81B22A467B
:1053F000079803F01DFB0CAA29463320FDF7A6F9F8
:105400000AE00798009002982B466843801CC2B2BD
:105410002188022007F0F2FD0298401C80B2029021
:10542000B842BAD33820484F064207D06946A0890F
:10543000898A00E077E0884204D86EE06846808A76
:10544000B8426AD02069410606D5F10604D401218C
:105450008902084320616CE021882022002003F0AB
:105460002FFB050011D00521F2070120C902002AF7
:105470000DD06A4611800490908A3B46401C82B24F
:1054800029462046FBF7DEFB37E0452001E7B2075F
:1054900013D5207901280ED01020A2680290019225
:1054A00000916846808A3B46401C82B229462046CD
:1054B000FBF700FB21E00220EFE7710701D5234A4B
:1054C00004E00399890F0DD0204A521C69460A80D6
:1054D0000490888AA389401C82B229462046FBF7A3
:1054E000ECFB0AE0B0060AD56846808AA389401C16
:1054F00082B229462046FBF720FB642808D02846C4
:10550000FDF7F2FC2288304607990DF01DF810E0F7
:105510000021284603F030FBB7E722883046079980
:105520000DF012F800E76846027E2188022007F09D
:10553000CFFE0121E06903F01FFB0020E061A8E637
:1055400000C0FFFFED440510FFFF0000022800002F
:10555000F0B58BB00D4604460020694608710490F2
:10556000E669002E16D0A806800F03D02088FDF72C
:10557000A1FB049001AB31462046049AFEF72AFABB
:10558000412865D0E80708D021883246022007F07C
:10559000D5F85DE041200BB0F0BD680705D5218846
:1055A0003246022007F088F852E0A80739D5F08883
:1055B0006188814205D921883246022006F07EFFAB
:1055C00046E02069410604D5012189020843206193
:1055D00080E021882022002003F072FA05001ED00E
:1055E00021883246022006F069FFA068801C0CF07A
:1055F000BBFA6188401E401886B2A0680CF0B4FA6D
:105600000246334629462046FBF7F8FA2846FDF7BE
:105610006BFCA0683146801C0AF0B0FE54E04520C7
:10562000B9E7E80614D5F088412702280ED9B168F9
:10563000801E4D7B80B2854201D9012016E0002DED
:1056400004D02946FAF7F8FE00290FD06846077102
:1056500001202169400381432161049800282DD055
:1056600001AA01213120FDF771F82DE002900220FE
:10567000002703901EE0049800280DD0039805AB86
:10568000001D81B22A46304603F0D2F905AA294608
:105690003320FDF75BF807E003980096C2B22B4673
:1056A0002188022007F0AAFC0398401980B27F1CD1
:1056B000BFB2039002988742DDD3C9E768460279FA
:1056C0002188022007F004FE0121E06903F054FA6A
:1056D0000020E06100205EE7F0B5074617480E465F
:1056E00000683B2149014018007D85B01D461446E5
:1056F000C00706D003A9384600F086FB00280AD16F
:1057000002E0472005B0F0BD04AA3046039900F03E
:105710006BFB002801D06020F4E7049922886088A0
:105720000968002A00D0088C32466E4631C6032331
:105730003946002000F004F8E4E7000020030020D0
:10574000FFB5002099B0239A0B9012900546149053
:10575000064615901C46DB480B460068DA49229F36
:1057600041180391002108910991518806911188EF
:105770000A913B2149014018007DC00706D00FA9BE
:10578000184600F041FB00280AD102E047201DB076
:10579000F0BD10AA0F991B9800F026FB002801D03D
:1057A0006020F4E71998002803D0600701D5012094
:1057B00000E000201390A007800F1C901098179015
:1057C0002030C078012840D11798C04B01899942F8
:1057D000F9D11798069904680A98228C41189142C9
:1057E00033D82046203016908078012816D0E08BE0
:1057F00004901798806900788006800F7ED0039807
:1058000040301890007A800778D51C980028F5D091
:10581000AE4F0F99FF372031206814E0BA4214D3FD
:10582000B942DDD80497E4E70389A84A934203D13B
:105830002322125C012A08D0BB4203D12322125C2E
:10584000012A03D000688842EED134E10590002897
:10585000FBD09C480921026809025118496B0027B6
:10586000009162E0780100990390085A01055AD02E
:105870001999002901D0884255D105997A008B6980
:10588000511C595C9A5C0902891889B20D918907EB
:1058900049D002220599FBF7CDF8002804D01998C9
:1058A000002840D0652072E7002008A9C8551C9840
:1058B000C00718D0179880690078C00613D50D98D6
:1058C000C00710D00120C8550543009A03988018DE
:1058D0004088159A904206D91590009A0398105A5C
:1058E0000005000D14901C9880071CD5179880693E
:1058F0000078800617D50D98800700E083E012D568
:105900000220CA5D05430243CA5500990398401816
:1059100040881599884206D9159000990398085A2D
:105920000005000D14907F1CFFB266480068A0308F
:10593000037BBB4296D8002D65D01898007A0006EC
:105940005FD460480168092000020818416B0020FC
:105950001BE042018E5A360515D0AE070BD55618FE
:105960003669B7070DD408AF3F5CBF0703D53607CC
:1059700001D546200BE7EE0705D05218127CD2075E
:1059800001D0432003E7401CC0B28342E1D8159800
:10599000C01E86B20498864200D90646A8070FD5D5
:1059A00020220020149903F08BF8129000287DD05B
:1059B000F01C82B20021129803F0A8FB002811D13C
:1059C000E80720D020220020149903F079F80B90EA
:1059D000002807D0F01C82B200210B9803F096FB40
:1059E000002810D08020FDF7A1FA1298002802D0DC
:1059F000002103F0C1F80B98002802D0002103F029
:105A0000BBF86420C3E6A1690A98069A081824998D
:105A100002F096FF16988078012801D10498E0835F
:105A2000002D46D0274B0920196800020818416B49
:105A3000002008AA0CE04301CF5A3F0506D05F18AA
:105A4000BC463B69175C3B4367463B61401CC0B2A8
:105A50001C4B1B68A0331B7B8342ECD8A8070DD5D9
:105A600012980090F01C82B221461C310220A369DA
:105A7000FBF76EFC0220129905F0EAFCE80718D04B
:105A80000B980090F61C2146B2B21C310120A3698C
:105A9000FBF75EFC1398002805D00B988021C07C92
:105AA00008430B99C87401200B9900E005E005F04C
:105AB000CFFC00206BE6422069E68020FDF736FA35
:105AC0009FE70000200300202C07000003280000AF
:105AD000FFB581B01F4606464625FBF771FE040060
